{
  "contractName": "CoreFee",
  "abi": [
    {
      "inputs": [
        {
          "internalType": "contract IBEP20",
          "name": "_feeContract",
          "type": "address"
        }
      ],
      "stateMutability": "nonpayable",
      "type": "constructor"
    },
    {
      "anonymous": false,
      "inputs": [
        {
          "indexed": true,
          "internalType": "address",
          "name": "previousOwner",
          "type": "address"
        },
        {
          "indexed": true,
          "internalType": "address",
          "name": "newOwner",
          "type": "address"
        }
      ],
      "name": "OwnershipTransferred",
      "type": "event"
    },
    {
      "inputs": [],
      "name": "bornFee",
      "outputs": [
        {
          "internalType": "uint256",
          "name": "",
          "type": "uint256"
        }
      ],
      "stateMutability": "view",
      "type": "function"
    },
    {
      "inputs": [],
      "name": "breedFee",
      "outputs": [
        {
          "internalType": "uint256",
          "name": "",
          "type": "uint256"
        }
      ],
      "stateMutability": "view",
      "type": "function"
    },
    {
      "inputs": [],
      "name": "destroyFee",
      "outputs": [
        {
          "internalType": "uint256",
          "name": "",
          "type": "uint256"
        }
      ],
      "stateMutability": "view",
      "type": "function"
    },
    {
      "inputs": [],
      "name": "evolveFee",
      "outputs": [
        {
          "internalType": "uint256",
          "name": "",
          "type": "uint256"
        }
      ],
      "stateMutability": "view",
      "type": "function"
    },
    {
      "inputs": [],
      "name": "feeContract",
      "outputs": [
        {
          "internalType": "contract IBEP20",
          "name": "",
          "type": "address"
        }
      ],
      "stateMutability": "view",
      "type": "function"
    },
    {
      "inputs": [],
      "name": "owner",
      "outputs": [
        {
          "internalType": "address",
          "name": "",
          "type": "address"
        }
      ],
      "stateMutability": "view",
      "type": "function"
    },
    {
      "inputs": [],
      "name": "renounceOwnership",
      "outputs": [],
      "stateMutability": "nonpayable",
      "type": "function"
    },
    {
      "inputs": [
        {
          "internalType": "address",
          "name": "newOwner",
          "type": "address"
        }
      ],
      "name": "transferOwnership",
      "outputs": [],
      "stateMutability": "nonpayable",
      "type": "function"
    },
    {
      "inputs": [
        {
          "internalType": "uint256",
          "name": "_bornFee",
          "type": "uint256"
        }
      ],
      "name": "setBornFee",
      "outputs": [],
      "stateMutability": "nonpayable",
      "type": "function"
    },
    {
      "inputs": [
        {
          "internalType": "uint256",
          "name": "_evolveFee",
          "type": "uint256"
        }
      ],
      "name": "setEvolveFee",
      "outputs": [],
      "stateMutability": "nonpayable",
      "type": "function"
    },
    {
      "inputs": [
        {
          "internalType": "uint256",
          "name": "_breedFee",
          "type": "uint256"
        }
      ],
      "name": "setBreedFee",
      "outputs": [],
      "stateMutability": "nonpayable",
      "type": "function"
    },
    {
      "inputs": [
        {
          "internalType": "uint256",
          "name": "_destroyFee",
          "type": "uint256"
        }
      ],
      "name": "setDestroyFee",
      "outputs": [],
      "stateMutability": "nonpayable",
      "type": "function"
    },
    {
      "inputs": [
        {
          "internalType": "address",
          "name": "_toAddress",
          "type": "address"
        },
        {
          "internalType": "uint256",
          "name": "_nftId",
          "type": "uint256"
        },
        {
          "internalType": "uint256",
          "name": "_gene",
          "type": "uint256"
        }
      ],
      "name": "chargeBornFee",
      "outputs": [],
      "stateMutability": "nonpayable",
      "type": "function"
    },
    {
      "inputs": [
        {
          "internalType": "address",
          "name": "_toAddress",
          "type": "address"
        },
        {
          "internalType": "uint256",
          "name": "_nftId",
          "type": "uint256"
        },
        {
          "internalType": "uint256",
          "name": "_newGene",
          "type": "uint256"
        }
      ],
      "name": "chargeEvolveFee",
      "outputs": [],
      "stateMutability": "nonpayable",
      "type": "function"
    },
    {
      "inputs": [
        {
          "internalType": "address",
          "name": "_toAddress",
          "type": "address"
        },
        {
          "internalType": "uint256",
          "name": "_nftId1",
          "type": "uint256"
        },
        {
          "internalType": "uint256",
          "name": "_nftId2",
          "type": "uint256"
        },
        {
          "internalType": "uint256",
          "name": "_newGene",
          "type": "uint256"
        }
      ],
      "name": "chargeBreedFee",
      "outputs": [],
      "stateMutability": "nonpayable",
      "type": "function"
    },
    {
      "inputs": [
        {
          "internalType": "address",
          "name": "_toAddress",
          "type": "address"
        },
        {
          "internalType": "uint256",
          "name": "_nftId",
          "type": "uint256"
        }
      ],
      "name": "chargeDestroyFee",
      "outputs": [],
      "stateMutability": "nonpayable",
      "type": "function"
    }
  ],
  "bytecode": "0x608060405234801561001057600080fd5b5060405161090838038061090883398101604081905261002f91610095565b600080546001600160a01b031916339081178255604051909182917f8be0079c531659141344cd1fd0a4f28419497f9722a3daafe3b4186f6b6457e0908290a350600180546001600160a01b0319166001600160a01b03929092169190911790556100c5565b6000602082840312156100a757600080fd5b81516001600160a01b03811681146100be57600080fd5b9392505050565b610834806100d46000396000f3fe608060405234801561001057600080fd5b50600436106101005760003560e01c8063771139ff11610097578063934fedf111610066578063934fedf1146101f5578063c0c7a7df14610208578063c4a522c814610211578063f2fde38b1461021a57600080fd5b8063771139ff146101ab5780637b182965146101be5780638da5cb5b146101d15780639096ebd8146101e257600080fd5b80631817d87e116100d35780631817d87e146101705780632a7d6d56146101875780636cf2fbe31461019a578063715018a6146101a357600080fd5b806306e29712146101055780630e45f2b114610135578063127185361461014a57806313fe8cc31461015d575b600080fd5b600154610118906001600160a01b031681565b6040516001600160a01b0390911681526020015b60405180910390f35b610148610143366004610731565b61022d565b005b61014861015836600461078c565b6102d8565b61014861016b36600461078c565b610310565b61017960045481565b60405190815260200161012c565b6101486101953660046106d4565b61033f565b61017960035481565b6101486103e6565b6101486101b93660046106fe565b61045a565b6101486101cc3660046106fe565b6104fd565b6000546001600160a01b0316610118565b6101486101f036600461078c565b61054e565b61014861020336600461078c565b61057d565b61017960025481565b61017960055481565b6101486102283660046106b2565b6105ac565b600454610239576102d2565b6001546001600160a01b03166323b872dd8561025d6000546001600160a01b031690565b6004546040518463ffffffff1660e01b815260040161027e939291906107a5565b602060405180830381600087803b15801561029857600080fd5b505af11580156102ac573d6000803e3d6000fd5b505050506040513d601f19601f820116820180604052508101906102d0919061076a565b505b50505050565b6000546001600160a01b0316331461030b5760405162461bcd60e51b8152600401610302906107c9565b60405180910390fd5b600555565b6000546001600160a01b0316331461033a5760405162461bcd60e51b8152600401610302906107c9565b600255565b60055461034a575050565b6001546001600160a01b03166323b872dd8361036e6000546001600160a01b031690565b6005546040518463ffffffff1660e01b815260040161038f939291906107a5565b602060405180830381600087803b1580156103a957600080fd5b505af11580156103bd573d6000803e3d6000fd5b505050506040513d601f19601f820116820180604052508101906103e1919061076a565b505050565b6000546001600160a01b031633146104105760405162461bcd60e51b8152600401610302906107c9565b600080546040516001600160a01b03909116907f8be0079c531659141344cd1fd0a4f28419497f9722a3daafe3b4186f6b6457e0908390a3600080546001600160a01b0319169055565b60035461046657505050565b6001546001600160a01b03166323b872dd8461048a6000546001600160a01b031690565b6003546040518463ffffffff1660e01b81526004016104ab939291906107a5565b602060405180830381600087803b1580156104c557600080fd5b505af11580156104d9573d6000803e3d6000fd5b505050506040513d601f19601f820116820180604052508101906102d2919061076a565b60025461050957505050565b6001546001600160a01b03166323b872dd8461052d6000546001600160a01b031690565b6002546040518463ffffffff1660e01b81526004016104ab939291906107a5565b6000546001600160a01b031633146105785760405162461bcd60e51b8152600401610302906107c9565b600355565b6000546001600160a01b031633146105a75760405162461bcd60e51b8152600401610302906107c9565b600455565b6000546001600160a01b031633146105d65760405162461bcd60e51b8152600401610302906107c9565b6001600160a01b03811661063b5760405162461bcd60e51b815260206004820152602660248201527f4f776e61626c653a206e6577206f776e657220697320746865207a65726f206160448201526564647265737360d01b6064820152608401610302565b600080546040516001600160a01b03808516939216917f8be0079c531659141344cd1fd0a4f28419497f9722a3daafe3b4186f6b6457e091a3600080546001600160a01b0319166001600160a01b0392909216919091179055565b80356001600160a01b03811681146106ad57600080fd5b919050565b6000602082840312156106c457600080fd5b6106cd82610696565b9392505050565b600080604083850312156106e757600080fd5b6106f083610696565b946020939093013593505050565b60008060006060848603121561071357600080fd5b61071c84610696565b95602085013595506040909401359392505050565b6000806000806080858703121561074757600080fd5b61075085610696565b966020860135965060408601359560600135945092505050565b60006020828403121561077c57600080fd5b815180151581146106cd57600080fd5b60006020828403121561079e57600080fd5b5035919050565b6001600160a01b039384168152919092166020820152604081019190915260600190565b6020808252818101527f4f776e61626c653a2063616c6c6572206973206e6f7420746865206f776e657260408201526060019056fea2646970667358221220497859b39fd23e3570ef66e8fab758465a6b838abdf19c862fc75f5818ab387864736f6c63430008060033",
  "immutableReferences": {},
  "source": "// SPDX-License-Identifier: MIT\npragma solidity 0.8.6;\n\nimport \"./access/Ownable.sol\";\nimport \"./ERC/ERC20/IBEP20.sol\";\n\ncontract CoreFee is Ownable {\n    IBEP20 public feeContract;\n    uint256 public bornFee;\n    uint256 public evolveFee;\n    uint256 public breedFee;\n    uint256 public destroyFee;\n\n    constructor(IBEP20 _feeContract) {\n        feeContract = _feeContract;\n    }\n\n    function setBornFee(uint256 _bornFee) public onlyOwner {\n        bornFee = _bornFee;\n    }\n\n    function setEvolveFee(uint256 _evolveFee) public onlyOwner {\n        evolveFee = _evolveFee;\n    }\n\n    function setBreedFee(uint256 _breedFee) public onlyOwner {\n        breedFee = _breedFee;\n    }\n\n    function setDestroyFee(uint256 _destroyFee) public onlyOwner {\n        destroyFee = _destroyFee;\n    }\n\n    function chargeBornFee(\n        address _toAddress,\n        uint256 _nftId,\n        uint256 _gene\n    ) external {\n        if (bornFee == 0) return;\n        //TODO: base on nftid and gene can have another calculation\n        feeContract.transferFrom(_toAddress, owner(), bornFee);\n    }\n\n    function chargeEvolveFee(\n        address _toAddress,\n        uint256 _nftId,\n        uint256 _newGene\n    ) external {\n        if (evolveFee == 0) return;\n        //TODO: base on nftid and gene can have another calculation\n        feeContract.transferFrom(_toAddress, owner(), evolveFee);\n    }\n\n    function chargeBreedFee(\n        address _toAddress,\n        uint256 _nftId1,\n        uint256 _nftId2,\n        uint256 _newGene\n    ) external {\n        if (breedFee == 0) return;\n        //TODO: base on nftid and gene can have another calculation\n        feeContract.transferFrom(_toAddress, owner(), breedFee);\n    }\n\n    function chargeDestroyFee(address _toAddress, uint256 _nftId) external {\n        if (destroyFee == 0) return;\n        //TODO: base on nftid and gene can have another calculation\n        feeContract.transferFrom(_toAddress, owner(), destroyFee);\n    }\n}\n",
  "sourcePath": "/Users/tabatrung/Documents/Work/NFTGameTamQuoc/projects/public/MAT-nft/contracts/CoreFee.sol",
  "compiler": {
    "name": "solc",
    "version": "0.8.6+commit.11564f7e.Emscripten.clang"
  },
  "schemaVersion": "3.2.0",
  "updatedAt": "2021-09-26T16:08:34.438Z",
  "devdoc": {
    "kind": "dev",
    "methods": {
      "owner()": {
        "details": "Returns the address of the current owner."
      },
      "renounceOwnership()": {
        "details": "Leaves the contract without owner. It will not be possible to call `onlyOwner` functions anymore. Can only be called by the current owner. NOTE: Renouncing ownership will leave the contract without an owner, thereby removing any functionality that is only available to the owner."
      },
      "transferOwnership(address)": {
        "details": "Transfers ownership of the contract to a new account (`newOwner`). Can only be called by the current owner."
      }
    },
    "version": 1
  },
  "userdoc": {
    "kind": "user",
    "methods": {},
    "version": 1
  }
}