{
  "contractName": "ERC721TransferProxy",
  "abi": [
    {
      "anonymous": false,
      "inputs": [
        {
          "indexed": true,
          "internalType": "address",
          "name": "previousOwner",
          "type": "address"
        },
        {
          "indexed": true,
          "internalType": "address",
          "name": "newOwner",
          "type": "address"
        }
      ],
      "name": "OwnershipTransferred",
      "type": "event"
    },
    {
      "anonymous": false,
      "inputs": [],
      "name": "Pause",
      "type": "event"
    },
    {
      "anonymous": false,
      "inputs": [],
      "name": "Unpause",
      "type": "event"
    },
    {
      "inputs": [],
      "name": "owner",
      "outputs": [
        {
          "internalType": "address",
          "name": "",
          "type": "address"
        }
      ],
      "stateMutability": "view",
      "type": "function"
    },
    {
      "inputs": [],
      "name": "pause",
      "outputs": [],
      "stateMutability": "nonpayable",
      "type": "function"
    },
    {
      "inputs": [],
      "name": "paused",
      "outputs": [
        {
          "internalType": "bool",
          "name": "",
          "type": "bool"
        }
      ],
      "stateMutability": "view",
      "type": "function"
    },
    {
      "inputs": [],
      "name": "renounceOwnership",
      "outputs": [],
      "stateMutability": "nonpayable",
      "type": "function"
    },
    {
      "inputs": [
        {
          "internalType": "address",
          "name": "newOwner",
          "type": "address"
        }
      ],
      "name": "transferOwnership",
      "outputs": [],
      "stateMutability": "nonpayable",
      "type": "function"
    },
    {
      "inputs": [],
      "name": "unpause",
      "outputs": [],
      "stateMutability": "nonpayable",
      "type": "function"
    },
    {
      "inputs": [
        {
          "internalType": "address",
          "name": "_user",
          "type": "address"
        },
        {
          "internalType": "bool",
          "name": "_isWhilelist",
          "type": "bool"
        }
      ],
      "name": "setWhilelist",
      "outputs": [],
      "stateMutability": "nonpayable",
      "type": "function"
    },
    {
      "inputs": [
        {
          "internalType": "contract IERC721",
          "name": "token",
          "type": "address"
        },
        {
          "internalType": "address",
          "name": "from",
          "type": "address"
        },
        {
          "internalType": "address",
          "name": "to",
          "type": "address"
        },
        {
          "internalType": "uint256",
          "name": "tokenId",
          "type": "uint256"
        }
      ],
      "name": "erc721TransferFrom",
      "outputs": [],
      "stateMutability": "nonpayable",
      "type": "function"
    }
  ],
  "bytecode": "0x60806040526000805460ff60a01b1916905534801561001d57600080fd5b50600080546001600160a01b031916339081178255604051909182917f8be0079c531659141344cd1fd0a4f28419497f9722a3daafe3b4186f6b6457e0908290a35061069e8061006e6000396000f3fe608060405234801561001057600080fd5b50600436106100885760003560e01c80638450ebe41161005b5780638450ebe4146100db5780638456cb59146100ee5780638da5cb5b146100f6578063f2fde38b1461011157600080fd5b80633f4ba83a1461008d57806349752554146100975780635c975abb146100aa578063715018a6146100d3575b600080fd5b610095610124565b005b6100956100a536600461058c565b6101dc565b6000546100be90600160a01b900460ff1681565b60405190151581526020015b60405180910390f35b610095610231565b6100956100e93660046105ca565b6102a5565b6100956103cc565b6000546040516001600160a01b0390911681526020016100ca565b61009561011f366004610568565b61047e565b6000546001600160a01b031633146101575760405162461bcd60e51b815260040161014e9061061b565b60405180910390fd5b600054600160a01b900460ff166101a65760405162461bcd60e51b815260206004820152601360248201527210dbdb9d1c9858dd081b9bdd081c185d5cd959606a1b604482015260640161014e565b6000805460ff60a01b191681556040517f7805862f689e2f13df9f062ff482ad3ad112aca9e0847911ed832e158c525b339190a1565b6000546001600160a01b031633146102065760405162461bcd60e51b815260040161014e9061061b565b6001600160a01b03919091166000908152600160205260409020805460ff1916911515919091179055565b6000546001600160a01b0316331461025b5760405162461bcd60e51b815260040161014e9061061b565b600080546040516001600160a01b03909116907f8be0079c531659141344cd1fd0a4f28419497f9722a3daafe3b4186f6b6457e0908390a3600080546001600160a01b0319169055565b3360009081526001602052604090205460ff166103105760405162461bcd60e51b8152602060048201526024808201527f4572726f723a206f6e6c79207768696c656c6973742063616e2063616c6c2070604482015263726f787960e01b606482015260840161014e565b600054600160a01b900460ff161561035c5760405162461bcd60e51b815260206004820152600f60248201526e10dbdb9d1c9858dd081c185d5cd959608a1b604482015260640161014e565b6040516323b872dd60e01b81526001600160a01b0384811660048301528381166024830152604482018390528516906323b872dd90606401600060405180830381600087803b1580156103ae57600080fd5b505af11580156103c2573d6000803e3d6000fd5b5050505050505050565b6000546001600160a01b031633146103f65760405162461bcd60e51b815260040161014e9061061b565b600054600160a01b900460ff16156104425760405162461bcd60e51b815260206004820152600f60248201526e10dbdb9d1c9858dd081c185d5cd959608a1b604482015260640161014e565b6000805460ff60a01b1916600160a01b1781556040517f6985a02210a168e66602d3235cb6db0e70f92b3ba4d376a33c0f3d9434bff6259190a1565b6000546001600160a01b031633146104a85760405162461bcd60e51b815260040161014e9061061b565b6001600160a01b03811661050d5760405162461bcd60e51b815260206004820152602660248201527f4f776e61626c653a206e6577206f776e657220697320746865207a65726f206160448201526564647265737360d01b606482015260840161014e565b600080546040516001600160a01b03808516939216917f8be0079c531659141344cd1fd0a4f28419497f9722a3daafe3b4186f6b6457e091a3600080546001600160a01b0319166001600160a01b0392909216919091179055565b60006020828403121561057a57600080fd5b813561058581610650565b9392505050565b6000806040838503121561059f57600080fd5b82356105aa81610650565b9150602083013580151581146105bf57600080fd5b809150509250929050565b600080600080608085870312156105e057600080fd5b84356105eb81610650565b935060208501356105fb81610650565b9250604085013561060b81610650565b9396929550929360600135925050565b6020808252818101527f4f776e61626c653a2063616c6c6572206973206e6f7420746865206f776e6572604082015260600190565b6001600160a01b038116811461066557600080fd5b5056fea264697066735822122095a38481c2c6d8afe814f781ba8207a51cf6bf927d1a5af03a18b6d7b00d793364736f6c63430008060033",
  "immutableReferences": {},
  "source": "// SPDX-License-Identifier: MIT\npragma solidity 0.8.6;\n\nimport \"../access/Ownable.sol\";\nimport \"../ERC/ERC721/IERC721.sol\";\nimport \"../lifecycle/Pausable.sol\";\n\ncontract ERC721TransferProxy is Ownable, Pausable {\n    mapping(address => bool) whilelists;\n\n    modifier onlyWhilelist() {\n        require(\n            whilelists[_msgSender()],\n            \"Error: only whilelist can call proxy\"\n        );\n        _;\n    }\n\n    function setWhilelist(address _user, bool _isWhilelist) public onlyOwner {\n        whilelists[_user] = _isWhilelist;\n    }\n\n    function erc721TransferFrom(\n        IERC721 token,\n        address from,\n        address to,\n        uint256 tokenId\n    ) external onlyWhilelist whenNotPaused {\n        token.transferFrom(from, to, tokenId);\n    }\n}\n",
  "sourcePath": "/Users/tabatrung/Documents/Work/NFTGameTamQuoc/projects/public/MAT-nft/contracts/proxy/ERC721TransferProxy.sol",
  "compiler": {
    "name": "solc",
    "version": "0.8.6+commit.11564f7e.Emscripten.clang"
  },
  "schemaVersion": "3.2.0",
  "updatedAt": "2021-09-26T16:08:34.535Z",
  "devdoc": {
    "kind": "dev",
    "methods": {
      "owner()": {
        "details": "Returns the address of the current owner."
      },
      "pause()": {
        "details": "called by the owner to pause, triggers stopped state"
      },
      "renounceOwnership()": {
        "details": "Leaves the contract without owner. It will not be possible to call `onlyOwner` functions anymore. Can only be called by the current owner. NOTE: Renouncing ownership will leave the contract without an owner, thereby removing any functionality that is only available to the owner."
      },
      "transferOwnership(address)": {
        "details": "Transfers ownership of the contract to a new account (`newOwner`). Can only be called by the current owner."
      },
      "unpause()": {
        "details": "called by the owner to unpause, returns to normal state"
      }
    },
    "version": 1
  },
  "userdoc": {
    "kind": "user",
    "methods": {},
    "version": 1
  }
}