{
  "contractName": "MarketV1",
  "abi": [
    {
      "inputs": [
        {
          "internalType": "contract MyMasterWarCore",
          "name": "_nft",
          "type": "address"
        },
        {
          "internalType": "contract IMarketAccessManager",
          "name": "_accessManager",
          "type": "address"
        },
        {
          "internalType": "contract MarketV1Storage",
          "name": "_marketV1Storage",
          "type": "address"
        },
        {
          "internalType": "uint256",
          "name": "_commission",
          "type": "uint256"
        }
      ],
      "stateMutability": "nonpayable",
      "type": "constructor"
    },
    {
      "anonymous": false,
      "inputs": [
        {
          "indexed": true,
          "internalType": "address",
          "name": "owner",
          "type": "address"
        },
        {
          "indexed": true,
          "internalType": "uint256",
          "name": "nftId",
          "type": "uint256"
        },
        {
          "indexed": false,
          "internalType": "address",
          "name": "currency",
          "type": "address"
        },
        {
          "indexed": false,
          "internalType": "uint256",
          "name": "listingPrice",
          "type": "uint256"
        },
        {
          "indexed": false,
          "internalType": "uint256",
          "name": "time",
          "type": "uint256"
        }
      ],
      "name": "Listing",
      "type": "event"
    },
    {
      "anonymous": false,
      "inputs": [
        {
          "indexed": true,
          "internalType": "address",
          "name": "previousOwner",
          "type": "address"
        },
        {
          "indexed": true,
          "internalType": "address",
          "name": "newOwner",
          "type": "address"
        }
      ],
      "name": "OwnershipTransferred",
      "type": "event"
    },
    {
      "anonymous": false,
      "inputs": [],
      "name": "Pause",
      "type": "event"
    },
    {
      "anonymous": false,
      "inputs": [
        {
          "indexed": true,
          "internalType": "address",
          "name": "owner",
          "type": "address"
        },
        {
          "indexed": false,
          "internalType": "uint256",
          "name": "nftId",
          "type": "uint256"
        },
        {
          "indexed": false,
          "internalType": "uint256",
          "name": "oldPrice",
          "type": "uint256"
        },
        {
          "indexed": false,
          "internalType": "uint256",
          "name": "newPrice",
          "type": "uint256"
        },
        {
          "indexed": false,
          "internalType": "uint256",
          "name": "time",
          "type": "uint256"
        }
      ],
      "name": "PriceUpdate",
      "type": "event"
    },
    {
      "anonymous": false,
      "inputs": [
        {
          "indexed": true,
          "internalType": "address",
          "name": "previousOwner",
          "type": "address"
        },
        {
          "indexed": true,
          "internalType": "address",
          "name": "newOwner",
          "type": "address"
        },
        {
          "indexed": false,
          "internalType": "uint256",
          "name": "nftId",
          "type": "uint256"
        },
        {
          "indexed": false,
          "internalType": "address",
          "name": "currency",
          "type": "address"
        },
        {
          "indexed": false,
          "internalType": "uint256",
          "name": "listingPrice",
          "type": "uint256"
        },
        {
          "indexed": false,
          "internalType": "uint256",
          "name": "price",
          "type": "uint256"
        },
        {
          "indexed": false,
          "internalType": "uint256",
          "name": "sellerAmount",
          "type": "uint256"
        },
        {
          "indexed": false,
          "internalType": "uint256",
          "name": "commissionAmount",
          "type": "uint256"
        },
        {
          "indexed": false,
          "internalType": "uint256",
          "name": "time",
          "type": "uint256"
        }
      ],
      "name": "Purchase",
      "type": "event"
    },
    {
      "anonymous": false,
      "inputs": [
        {
          "indexed": true,
          "internalType": "address",
          "name": "owner",
          "type": "address"
        },
        {
          "indexed": true,
          "internalType": "uint256",
          "name": "nftId",
          "type": "uint256"
        },
        {
          "indexed": false,
          "internalType": "uint256",
          "name": "time",
          "type": "uint256"
        }
      ],
      "name": "UnListing",
      "type": "event"
    },
    {
      "anonymous": false,
      "inputs": [],
      "name": "Unpause",
      "type": "event"
    },
    {
      "inputs": [],
      "name": "commission",
      "outputs": [
        {
          "internalType": "uint256",
          "name": "",
          "type": "uint256"
        }
      ],
      "stateMutability": "view",
      "type": "function"
    },
    {
      "inputs": [],
      "name": "owner",
      "outputs": [
        {
          "internalType": "address",
          "name": "",
          "type": "address"
        }
      ],
      "stateMutability": "view",
      "type": "function"
    },
    {
      "inputs": [],
      "name": "pause",
      "outputs": [],
      "stateMutability": "nonpayable",
      "type": "function"
    },
    {
      "inputs": [],
      "name": "paused",
      "outputs": [
        {
          "internalType": "bool",
          "name": "",
          "type": "bool"
        }
      ],
      "stateMutability": "view",
      "type": "function"
    },
    {
      "inputs": [],
      "name": "renounceOwnership",
      "outputs": [],
      "stateMutability": "nonpayable",
      "type": "function"
    },
    {
      "inputs": [
        {
          "internalType": "address",
          "name": "newOwner",
          "type": "address"
        }
      ],
      "name": "transferOwnership",
      "outputs": [],
      "stateMutability": "nonpayable",
      "type": "function"
    },
    {
      "inputs": [],
      "name": "unpause",
      "outputs": [],
      "stateMutability": "nonpayable",
      "type": "function"
    },
    {
      "inputs": [
        {
          "internalType": "contract IMarketAccessManager",
          "name": "_accessManager",
          "type": "address"
        }
      ],
      "name": "setAccessManager",
      "outputs": [],
      "stateMutability": "nonpayable",
      "type": "function"
    },
    {
      "inputs": [
        {
          "internalType": "contract MyMasterWarCore",
          "name": "_nft",
          "type": "address"
        }
      ],
      "name": "setMyMasterWarCore",
      "outputs": [],
      "stateMutability": "nonpayable",
      "type": "function"
    },
    {
      "inputs": [
        {
          "internalType": "contract MarketV1Storage",
          "name": "_marketV1Storage",
          "type": "address"
        }
      ],
      "name": "setStorage",
      "outputs": [],
      "stateMutability": "nonpayable",
      "type": "function"
    },
    {
      "inputs": [
        {
          "internalType": "uint256",
          "name": "_commission",
          "type": "uint256"
        }
      ],
      "name": "setCommission",
      "outputs": [],
      "stateMutability": "nonpayable",
      "type": "function"
    },
    {
      "inputs": [
        {
          "internalType": "uint256",
          "name": "nftId",
          "type": "uint256"
        }
      ],
      "name": "getItem",
      "outputs": [
        {
          "internalType": "address",
          "name": "",
          "type": "address"
        },
        {
          "internalType": "address",
          "name": "",
          "type": "address"
        },
        {
          "internalType": "uint256",
          "name": "",
          "type": "uint256"
        },
        {
          "internalType": "uint256",
          "name": "",
          "type": "uint256"
        }
      ],
      "stateMutability": "view",
      "type": "function"
    },
    {
      "inputs": [
        {
          "internalType": "uint256[]",
          "name": "nftIds",
          "type": "uint256[]"
        },
        {
          "internalType": "address[]",
          "name": "currencies",
          "type": "address[]"
        },
        {
          "internalType": "uint256[]",
          "name": "prices",
          "type": "uint256[]"
        }
      ],
      "name": "listing",
      "outputs": [],
      "stateMutability": "nonpayable",
      "type": "function"
    },
    {
      "inputs": [
        {
          "internalType": "uint256",
          "name": "id",
          "type": "uint256"
        },
        {
          "internalType": "uint256",
          "name": "amount",
          "type": "uint256"
        }
      ],
      "name": "buy",
      "outputs": [],
      "stateMutability": "payable",
      "type": "function"
    },
    {
      "inputs": [
        {
          "internalType": "uint256[]",
          "name": "nftIds",
          "type": "uint256[]"
        },
        {
          "internalType": "uint256[]",
          "name": "prices",
          "type": "uint256[]"
        }
      ],
      "name": "updatePrice",
      "outputs": [
        {
          "internalType": "bool",
          "name": "",
          "type": "bool"
        }
      ],
      "stateMutability": "nonpayable",
      "type": "function"
    },
    {
      "inputs": [
        {
          "internalType": "uint256[]",
          "name": "nftIds",
          "type": "uint256[]"
        }
      ],
      "name": "unListing",
      "outputs": [
        {
          "internalType": "bool",
          "name": "",
          "type": "bool"
        }
      ],
      "stateMutability": "nonpayable",
      "type": "function"
    }
  ],
  "bytecode": "0x60806040526000805460ff60a01b191690553480156200001e57600080fd5b50604051620021f5380380620021f58339810160408190526200004191620000cc565b600080546001600160a01b031916339081178255604051909182917f8be0079c531659141344cd1fd0a4f28419497f9722a3daafe3b4186f6b6457e0908290a35060018055600380546001600160a01b03199081166001600160a01b03968716179091556004805482169486169490941790935560058054909316919093161790556002556200013f565b60008060008060808587031215620000e357600080fd5b8451620000f08162000126565b6020860151909450620001038162000126565b6040860151909350620001168162000126565b6060959095015193969295505050565b6001600160a01b03811681146200013c57600080fd5b50565b6120a6806200014f6000396000f3fe6080604052600436106100f35760003560e01c80638456cb591161008a578063c958080411610059578063c9580804146102a2578063d6febde8146102c2578063e1489191146102d5578063f2fde38b146102f957600080fd5b80638456cb59146102255780638da5cb5b1461023a5780639137c1a714610262578063c571a48b1461028257600080fd5b80633f4ba83a116100c65780633f4ba83a146101ba5780635c975abb146101cf578063671b1185146101f0578063715018a61461021057600080fd5b806322a6b843146100f85780632840c2ca1461012d5780633129e7731461014d578063355e6b4314610198575b600080fd5b34801561010457600080fd5b50610118610113366004611c58565b610319565b60405190151581526020015b60405180910390f35b34801561013957600080fd5b50610118610148366004611d81565b6105a5565b34801561015957600080fd5b5061016d610168366004611e07565b61083a565b604080516001600160a01b039586168152949093166020850152918301526060820152608001610124565b3480156101a457600080fd5b506101b86101b3366004611e07565b6109f9565b005b3480156101c657600080fd5b506101b8610a28565b3480156101db57600080fd5b5060005461011890600160a01b900460ff1681565b3480156101fc57600080fd5b506101b861020b366004611b8b565b610ad7565b34801561021c57600080fd5b506101b8610b23565b34801561023157600080fd5b506101b8610b97565b34801561024657600080fd5b506000546040516001600160a01b039091168152602001610124565b34801561026e57600080fd5b506101b861027d366004611b8b565b610c27565b34801561028e57600080fd5b506101b861029d366004611c95565b610c73565b3480156102ae57600080fd5b506101b86102bd366004611b8b565b611259565b6101b86102d0366004611e20565b6112a5565b3480156102e157600080fd5b506102eb60025481565b604051908152602001610124565b34801561030557600080fd5b506101b8610314366004611b8b565b6114d6565b60008054600160a01b900460ff161561034d5760405162461bcd60e51b815260040161034490611e8d565b60405180910390fd5b60005b825181101561059c5760055483516000916001600160a01b031690633129e773908690859081106103835761038361202c565b60200260200101516040518263ffffffff1660e01b81526004016103a991815260200190565b60606040518083038186803b1580156103c157600080fd5b505afa1580156103d5573d6000803e3d6000fd5b505050506040513d601f19601f820116820180604052508101906103f99190611bcc565b5090915050336001600160a01b038216146104265760405162461bcd60e51b815260040161034490611f17565b60055484516001600160a01b039091169063654fc8339086908590811061044f5761044f61202c565b60200260200101516040518263ffffffff1660e01b815260040161047591815260200190565b600060405180830381600087803b15801561048f57600080fd5b505af11580156104a3573d6000803e3d6000fd5b50506003546001600160a01b031691506323b872dd905030338786815181106104ce576104ce61202c565b60200260200101516040518463ffffffff1660e01b81526004016104f493929190611e42565b600060405180830381600087803b15801561050e57600080fd5b505af1158015610522573d6000803e3d6000fd5b505050508382815181106105385761053861202c565b60200260200101516105473390565b6001600160a01b03167f14047da06b8e67a678c0ca7f7578ca308edb85c0270e2ec0f58ee85eb14082b64260405161058191815260200190565b60405180910390a3508061059481611ffb565b915050610350565b50600192915050565b60008054600160a01b900460ff16156105d05760405162461bcd60e51b815260040161034490611e8d565b81518351146105f15760405162461bcd60e51b815260040161034490611e66565b60005b8351811015610830576005548451600091829182916001600160a01b031690633129e7739089908790811061062b5761062b61202c565b60200260200101516040518263ffffffff1660e01b815260040161065191815260200190565b60606040518083038186803b15801561066957600080fd5b505afa15801561067d573d6000803e3d6000fd5b505050506040513d601f19601f820116820180604052508101906106a19190611bcc565b91945092509050336001600160a01b038416146106d05760405162461bcd60e51b815260040161034490611f17565b60055487516001600160a01b0390911690630a0744d6908990879081106106f9576106f961202c565b602002602001015185858a89815181106107155761071561202c565b60200260200101516040518563ffffffff1660e01b815260040161075c94939291909384526001600160a01b03928316602085015291166040830152606082015260800190565b600060405180830381600087803b15801561077657600080fd5b505af115801561078a573d6000803e3d6000fd5b505050506107953390565b6001600160a01b03167f6e07c808af035a2dfd51f70a97638f6facab221957fe9d660d37fe7523682d388886815181106107d1576107d161202c565b6020026020010151838988815181106107ec576107ec61202c565b602090810291909101810151604080519485529184019290925282015242606082015260800160405180910390a2505050808061082890611ffb565b9150506105f4565b5060019392505050565b600354604051634f558e7960e01b8152600481018390526000918291829182916001600160a01b0390911690634f558e799060240160206040518083038186803b15801561088757600080fd5b505afa15801561089b573d6000803e3d6000fd5b505050506040513d601f19601f820116820180604052508101906108bf9190611de5565b6108db5760405162461bcd60e51b815260040161034490611eb6565b600554604051633129e77360e01b815260048101879052600091829182916001600160a01b031690633129e7739060240160606040518083038186803b15801561092457600080fd5b505afa158015610938573d6000803e3d6000fd5b505050506040513d601f19601f8201168201806040525081019061095c9190611bcc565b600354604051634a83e9cd60e11b8152600481018d905293965091945092506000916001600160a01b0390911690639507d39a9060240160a06040518083038186803b1580156109ab57600080fd5b505afa1580156109bf573d6000803e3d6000fd5b505050506040513d601f19601f820116820180604052508101906109e39190611c0f565b50969c959b509399509497509295505050505050565b6000546001600160a01b03163314610a235760405162461bcd60e51b815260040161034490611ee2565b600255565b6000546001600160a01b03163314610a525760405162461bcd60e51b815260040161034490611ee2565b600054600160a01b900460ff16610aa15760405162461bcd60e51b815260206004820152601360248201527210dbdb9d1c9858dd081b9bdd081c185d5cd959606a1b6044820152606401610344565b6000805460ff60a01b191681556040517f7805862f689e2f13df9f062ff482ad3ad112aca9e0847911ed832e158c525b339190a1565b6000546001600160a01b03163314610b015760405162461bcd60e51b815260040161034490611ee2565b600380546001600160a01b0319166001600160a01b0392909216919091179055565b6000546001600160a01b03163314610b4d5760405162461bcd60e51b815260040161034490611ee2565b600080546040516001600160a01b03909116907f8be0079c531659141344cd1fd0a4f28419497f9722a3daafe3b4186f6b6457e0908390a3600080546001600160a01b0319169055565b6000546001600160a01b03163314610bc15760405162461bcd60e51b815260040161034490611ee2565b600054600160a01b900460ff1615610beb5760405162461bcd60e51b815260040161034490611e8d565b6000805460ff60a01b1916600160a01b1781556040517f6985a02210a168e66602d3235cb6db0e70f92b3ba4d376a33c0f3d9434bff6259190a1565b6000546001600160a01b03163314610c515760405162461bcd60e51b815260040161034490611ee2565b600580546001600160a01b0319166001600160a01b0392909216919091179055565b600054600160a01b900460ff1615610c9d5760405162461bcd60e51b815260040161034490611e8d565b6004546001600160a01b03166340783a65336040516001600160e01b031960e084901b1681526001600160a01b03909116600482015260240160206040518083038186803b158015610cee57600080fd5b505afa158015610d02573d6000803e3d6000fd5b505050506040513d601f19601f82011682018060405250810190610d269190611de5565b610d725760405162461bcd60e51b815260206004820152601b60248201527f4e6f742068617665206c697374696e67207065726d697369736f6e00000000006044820152606401610344565b8151835114610d935760405162461bcd60e51b815260040161034490611e66565b8051835114610db45760405162461bcd60e51b815260040161034490611e66565b60005b83518110156112535760035484516001600160a01b0390911690634f558e7990869084908110610de957610de961202c565b60200260200101516040518263ffffffff1660e01b8152600401610e0f91815260200190565b60206040518083038186803b158015610e2757600080fd5b505afa158015610e3b573d6000803e3d6000fd5b505050506040513d601f19601f82011682018060405250810190610e5f9190611de5565b610e7b5760405162461bcd60e51b815260040161034490611eb6565b600354845133916001600160a01b031690636352211e90879085908110610ea457610ea461202c565b60200260200101516040518263ffffffff1660e01b8152600401610eca91815260200190565b60206040518083038186803b158015610ee257600080fd5b505afa158015610ef6573d6000803e3d6000fd5b505050506040513d601f19601f82011682018060405250810190610f1a9190611baf565b6001600160a01b031614610f405760405162461bcd60e51b815260040161034490611f17565b60055484516000916001600160a01b031690633129e77390879085908110610f6a57610f6a61202c565b60200260200101516040518263ffffffff1660e01b8152600401610f9091815260200190565b60606040518083038186803b158015610fa857600080fd5b505afa158015610fbc573d6000803e3d6000fd5b505050506040513d601f19601f82011682018060405250810190610fe09190611bcc565b50909150506001600160a01b0381161561103c5760405162461bcd60e51b815260206004820152601b60248201527f4572726f722c206974656d206c697374696e6720616c726561647900000000006044820152606401610344565b60055485516001600160a01b039091169063905a9e59908790859081106110655761106561202c565b60200260200101516110743390565b8786815181106110865761108661202c565b60200260200101518787815181106110a0576110a061202c565b60200260200101516040518563ffffffff1660e01b81526004016110e794939291909384526001600160a01b03928316602085015291166040830152606082015260800190565b600060405180830381600087803b15801561110157600080fd5b505af1158015611115573d6000803e3d6000fd5b50506003546001600160a01b031691506323b872dd905033308886815181106111405761114061202c565b60200260200101516040518463ffffffff1660e01b815260040161116693929190611e42565b600060405180830381600087803b15801561118057600080fd5b505af1158015611194573d6000803e3d6000fd5b505050508482815181106111aa576111aa61202c565b60200260200101516111b93390565b6001600160a01b03167fdeea3813a7666253b0c55c95e6b2849b701e1f122ae77268ae763f3c2208d7318685815181106111f5576111f561202c565b602002602001015186868151811061120f5761120f61202c565b602090810291909101810151604080516001600160a01b03909416845291830152429082015260600160405180910390a3508061124b81611ffb565b915050610db7565b50505050565b6000546001600160a01b031633146112835760405162461bcd60e51b815260040161034490611ee2565b600480546001600160a01b0319166001600160a01b0392909216919091179055565b600054600160a01b900460ff16156112cf5760405162461bcd60e51b815260040161034490611e8d565b600260015414156113225760405162461bcd60e51b815260206004820152601f60248201527f5265656e7472616e637947756172643a207265656e7472616e742063616c6c006044820152606401610344565b600260015534156113305750345b600554604051633129e77360e01b815260048101849052600091829182916001600160a01b031690633129e7739060240160606040518083038186803b15801561137957600080fd5b505afa15801561138d573d6000803e3d6000fd5b505050506040513d601f19601f820116820180604052508101906113b19190611bcc565b919450925090506113c585858585856115c0565b6003546040516331a9108f60e11b8152600481018790526000916001600160a01b031690636352211e9060240160206040518083038186803b15801561140a57600080fd5b505afa15801561141e573d6000803e3d6000fd5b505050506040513d601f19601f820116820180604052508101906114429190611baf565b90503360008061145489878a8a611845565b604080518c81526001600160a01b038a81166020830152918101899052606081018c90526080810183905260a081018490524260c082015292945090925080851691908616907f57c0f9a681945bb2b904efb4505ff95656ab866ab0ac97e4a4174e80625686129060e00160405180910390a350506001805550505050505050565b6000546001600160a01b031633146115005760405162461bcd60e51b815260040161034490611ee2565b6001600160a01b0381166115655760405162461bcd60e51b815260206004820152602660248201527f4f776e61626c653a206e6577206f776e657220697320746865207a65726f206160448201526564647265737360d01b6064820152608401610344565b600080546040516001600160a01b03808516939216917f8be0079c531659141344cd1fd0a4f28419497f9722a3daafe3b4186f6b6457e091a3600080546001600160a01b0319166001600160a01b0392909216919091179055565b600354604051634f558e7960e01b8152600481018790526001600160a01b0390911690634f558e799060240160206040518083038186803b15801561160457600080fd5b505afa158015611618573d6000803e3d6000fd5b505050506040513d601f19601f8201168201806040525081019061163c9190611de5565b6116585760405162461bcd60e51b815260040161034490611eb6565b6001600160a01b0383166116ae5760405162461bcd60e51b815260206004820152601960248201527f4974656d206e6f74206c69737465642063757272656e746c79000000000000006044820152606401610344565b6003546040516331a9108f60e11b8152600481018790526001600160a01b0390911690636352211e9060240160206040518083038186803b1580156116f257600080fd5b505afa158015611706573d6000803e3d6000fd5b505050506040513d601f19601f8201168201806040525081019061172a9190611baf565b6001600160a01b0316336001600160a01b0316141561178b5760405162461bcd60e51b815260206004820152601860248201527f43616e206e6f7420627579207768617420796f75206f776e00000000000000006044820152606401610344565b6001600160a01b0382166117ee57803410156117e95760405162461bcd60e51b815260206004820152601a60248201527f4572726f722c2074686520616d6f756e74206973206c6f7765720000000000006044820152606401610344565b61183e565b8084101561183e5760405162461bcd60e51b815260206004820152601a60248201527f4572726f722c2074686520616d6f756e74206973206c6f7765720000000000006044820152606401610344565b5050505050565b6003546040516323b872dd60e01b8152600091829133916001600160a01b0316906323b872dd9061187e90309085908c90600401611e42565b600060405180830381600087803b15801561189857600080fd5b505af11580156118ac573d6000803e3d6000fd5b505050506000612710600254876118c39190611fc5565b6118cd9190611fa3565b905060006118db8288611fe4565b90506001600160a01b038816611961576040516001600160a01b0387169082156108fc029083906000818181858888f19350505050158015611921573d6000803e3d6000fd5b50600080546040516001600160a01b039091169184156108fc02918591818181858888f1935050505015801561195b573d6000803e3d6000fd5b50611aac565b6040516323b872dd60e01b81526001600160a01b038916906323b872dd906119919086908a908690600401611e42565b602060405180830381600087803b1580156119ab57600080fd5b505af11580156119bf573d6000803e3d6000fd5b505050506040513d601f19601f820116820180604052508101906119e39190611de5565b50876001600160a01b03166323b872dd84611a066000546001600160a01b031690565b856040518463ffffffff1660e01b8152600401611a2593929190611e42565b602060405180830381600087803b158015611a3f57600080fd5b505af1158015611a53573d6000803e3d6000fd5b505050506040513d601f19601f82011682018060405250810190611a779190611de5565b503415611aac5760405133903480156108fc02916000818181858888f19350505050158015611aaa573d6000803e3d6000fd5b505b60055460405163654fc83360e01b8152600481018b90526001600160a01b039091169063654fc83390602401600060405180830381600087803b158015611af257600080fd5b505af1158015611b06573d6000803e3d6000fd5b50939b929a509198505050505050505050565b600082601f830112611b2a57600080fd5b81356020611b3f611b3a83611f7f565b611f4e565b80838252828201915082860187848660051b8901011115611b5f57600080fd5b60005b85811015611b7e57813584529284019290840190600101611b62565b5090979650505050505050565b600060208284031215611b9d57600080fd5b8135611ba881612058565b9392505050565b600060208284031215611bc157600080fd5b8151611ba881612058565b600080600060608486031215611be157600080fd5b8351611bec81612058565b6020850151909350611bfd81612058565b80925050604084015190509250925092565b600080600080600060a08688031215611c2757600080fd5b8551611c3281612058565b602087015160408801516060890151608090990151929a91995097965090945092505050565b600060208284031215611c6a57600080fd5b813567ffffffffffffffff811115611c8157600080fd5b611c8d84828501611b19565b949350505050565b600080600060608486031215611caa57600080fd5b833567ffffffffffffffff80821115611cc257600080fd5b611cce87838801611b19565b9450602091508186013581811115611ce557600080fd5b8601601f81018813611cf657600080fd5b8035611d04611b3a82611f7f565b8082825285820191508584018b878560051b8701011115611d2457600080fd5b600094505b83851015611d50578035611d3c81612058565b835260019490940193918601918601611d29565b5096505050506040860135915080821115611d6a57600080fd5b50611d7786828701611b19565b9150509250925092565b60008060408385031215611d9457600080fd5b823567ffffffffffffffff80821115611dac57600080fd5b611db886838701611b19565b93506020850135915080821115611dce57600080fd5b50611ddb85828601611b19565b9150509250929050565b600060208284031215611df757600080fd5b81518015158114611ba857600080fd5b600060208284031215611e1957600080fd5b5035919050565b60008060408385031215611e3357600080fd5b50508035926020909101359150565b6001600160a01b039384168152919092166020820152604081019190915260600190565b6020808252600d908201526c125b9c1d5d081a5b9d985b1a59609a1b604082015260600190565b6020808252600f908201526e10dbdb9d1c9858dd081c185d5cd959608a1b604082015260600190565b602080825260129082015271115c9c9bdc8b081ddc9bdb99c81b999d125960721b604082015260600190565b6020808252818101527f4f776e61626c653a2063616c6c6572206973206e6f7420746865206f776e6572604082015260600190565b6020808252601c908201527f4572726f722c20796f7520617265206e6f7420746865206f776e657200000000604082015260600190565b604051601f8201601f1916810167ffffffffffffffff81118282101715611f7757611f77612042565b604052919050565b600067ffffffffffffffff821115611f9957611f99612042565b5060051b60200190565b600082611fc057634e487b7160e01b600052601260045260246000fd5b500490565b6000816000190483118215151615611fdf57611fdf612016565b500290565b600082821015611ff657611ff6612016565b500390565b600060001982141561200f5761200f612016565b5060010190565b634e487b7160e01b600052601160045260246000fd5b634e487b7160e01b600052603260045260246000fd5b634e487b7160e01b600052604160045260246000fd5b6001600160a01b038116811461206d57600080fd5b5056fea264697066735822122008e5b8d3d57d03f50092d714a40be5445396dde32942079262da18b48062bcbc64736f6c63430008060033",
  "immutableReferences": {},
  "source": "// SPDX-License-Identifier: MIT\npragma solidity 0.8.6;\n\nimport \"./MyMasterWarCore.sol\";\nimport \"./access/Ownable.sol\";\nimport \"./proxy/ERC721TransferProxy.sol\";\nimport \"./lifecycle/Pausable.sol\";\nimport \"./ERC/ERC20/IBEP20.sol\";\nimport \"./access/IMarketAccessManager.sol\";\nimport \"./security/ReentrancyGuard.sol\";\nimport \"./MarketV1Storage.sol\";\n\ncontract MarketV1 is Ownable, Pausable, ReentrancyGuard {\n    uint256 public commission; //2 decinal\n\n    MyMasterWarCore private nft;\n    IMarketAccessManager private accessManager;\n    MarketV1Storage private marketV1Storage;\n\n    event Purchase(\n        address indexed previousOwner,\n        address indexed newOwner,\n        uint256 nftId,\n        address currency,\n        uint256 listingPrice,\n        uint256 price,\n        uint256 sellerAmount,\n        uint256 commissionAmount,\n        uint256 time\n    );\n\n    event Listing(\n        address indexed owner,\n        uint256 indexed nftId,\n        address currency,\n        uint256 listingPrice,\n        uint256 time\n    );\n\n    event PriceUpdate(\n        address indexed owner,\n        uint256 nftId,\n        uint256 oldPrice,\n        uint256 newPrice,\n        uint256 time\n    );\n\n    event UnListing(address indexed owner, uint256 indexed nftId, uint256 time);\n\n    constructor(\n        MyMasterWarCore _nft,\n        IMarketAccessManager _accessManager,\n        MarketV1Storage _marketV1Storage,\n        uint256 _commission\n    ) {\n        nft = _nft;\n        accessManager = _accessManager;\n        marketV1Storage = _marketV1Storage;\n        commission = _commission;\n    }\n\n    function setAccessManager(IMarketAccessManager _accessManager)\n        external\n        onlyOwner\n    {\n        accessManager = _accessManager;\n    }\n\n    function setMyMasterWarCore(MyMasterWarCore _nft) external onlyOwner {\n        nft = _nft;\n    }\n\n    function setStorage(MarketV1Storage _marketV1Storage) external onlyOwner {\n        marketV1Storage = _marketV1Storage;\n    }\n\n    function setCommission(uint256 _commission) external onlyOwner {\n        commission = _commission;\n    }\n\n    function getItem(uint256 nftId)\n        public\n        view\n        returns (\n            address,\n            address,\n            uint256,\n            uint256\n        )\n    {\n        require(nft.exists(nftId), \"Error, wrong nftId\");\n\n        address owner;\n        address currency;\n        uint256 price;\n        (owner, currency, price) = marketV1Storage.getItem(nftId);\n        uint256 gene;\n        (, , , gene, ) = nft.get(nftId);\n\n        return (owner, currency, price, gene);\n    }\n\n    function listing(\n        uint256[] memory nftIds,\n        address[] memory currencies,\n        uint256[] memory prices\n    ) external whenNotPaused {\n        require(\n            accessManager.isListingAllowed(_msgSender()),\n            \"Not have listing permisison\"\n        );\n\n        require(nftIds.length == currencies.length, \"Input invalid\");\n        require(nftIds.length == prices.length, \"Input invalid\");\n\n        for (uint256 i = 0; i < nftIds.length; i++) {\n            require(nft.exists(nftIds[i]), \"Error, wrong nftId\");\n            require(\n                nft.ownerOf(nftIds[i]) == _msgSender(),\n                \"Error, you are not the owner\"\n            );\n            address owner;\n            (owner, , ) = marketV1Storage.getItem(nftIds[i]);\n            require(owner == address(0), \"Error, item listing already\");\n\n            marketV1Storage.addItem(\n                nftIds[i],\n                _msgSender(),\n                currencies[i],\n                prices[i]\n            );\n            //transfer NFT for market contract\n            nft.transferFrom(_msgSender(), address(this), nftIds[i]);\n            emit Listing(\n                _msgSender(),\n                nftIds[i],\n                currencies[i],\n                prices[i],\n                block.timestamp\n            );\n        }\n    }\n\n    function buy(uint256 id, uint256 amount)\n        external\n        payable\n        whenNotPaused\n        nonReentrant\n    {\n        if (msg.value != 0) {\n            amount = msg.value;\n        }\n        address owner;\n        address currency;\n        uint256 price;\n        (owner, currency, price) = marketV1Storage.getItem(id);\n        validate(id, amount, owner, currency, price);\n\n        address previousOwner = nft.ownerOf(id);\n        address newOwner = _msgSender();\n\n        uint256 commissionAmount;\n        uint256 sellerAmount;\n        (commissionAmount, sellerAmount) = trade(id, currency, amount, owner);\n\n        emit Purchase(\n            previousOwner,\n            newOwner,\n            id,\n            currency,\n            price,\n            amount,\n            sellerAmount,\n            commissionAmount,\n            block.timestamp\n        );\n    }\n\n    function validate(\n        uint256 id,\n        uint256 amount,\n        address owner,\n        address currency,\n        uint256 price\n    ) internal view {\n        require(nft.exists(id), \"Error, wrong nftId\");\n        require(owner != address(0), \"Item not listed currently\");\n        require(_msgSender() != nft.ownerOf(id), \"Can not buy what you own\");\n        if (currency == address(0)) {\n            require(msg.value >= price, \"Error, the amount is lower\");\n        } else {\n            require(amount >= price, \"Error, the amount is lower\");\n        }\n    }\n\n    function trade(\n        uint256 id,\n        address currency,\n        uint256 amount,\n        address nftOwner\n    ) internal returns (uint256, uint256) {\n        address buyer = _msgSender();\n\n        nft.transferFrom(address(this), buyer, id);\n        uint256 commissionAmount = (amount * commission) / 10000;\n        uint256 sellerAmount = amount - commissionAmount;\n\n        if (currency == address(0)) {\n            payable(nftOwner).transfer(sellerAmount);\n            payable(owner()).transfer(commissionAmount);\n        } else {\n            IBEP20(currency).transferFrom(buyer, nftOwner, sellerAmount);\n            IBEP20(currency).transferFrom(buyer, owner(), commissionAmount);\n\n            //transfer BNB back to user if currency is not address(0)\n            if (msg.value != 0) {\n                payable(_msgSender()).transfer(msg.value);\n            }\n        }\n\n        marketV1Storage.deleteItem(id);\n        return (commissionAmount, sellerAmount);\n    }\n\n    function updatePrice(uint256[] memory nftIds, uint256[] memory prices)\n        public\n        whenNotPaused\n        returns (bool)\n    {\n        require(nftIds.length == prices.length, \"Input invalid\");\n        for (uint256 i = 0; i < nftIds.length; i++) {\n            address nftOwner;\n            address currency;\n            uint256 oldPrice;\n            (nftOwner, currency, oldPrice) = marketV1Storage.getItem(nftIds[i]);\n\n            require(_msgSender() == nftOwner, \"Error, you are not the owner\");\n            marketV1Storage.updateItem(\n                nftIds[i],\n                nftOwner,\n                currency,\n                prices[i]\n            );\n\n            emit PriceUpdate(\n                _msgSender(),\n                nftIds[i],\n                oldPrice,\n                prices[i],\n                block.timestamp\n            );\n        }\n\n        return true;\n    }\n\n    function unListing(uint256[] memory nftIds)\n        public\n        whenNotPaused\n        returns (bool)\n    {\n        for (uint256 i = 0; i < nftIds.length; i++) {\n            address nftOwner;\n            (nftOwner, , ) = marketV1Storage.getItem(nftIds[i]);\n            require(_msgSender() == nftOwner, \"Error, you are not the owner\");\n\n            marketV1Storage.deleteItem(nftIds[i]);\n\n            nft.transferFrom(address(this), _msgSender(), nftIds[i]);\n\n            emit UnListing(_msgSender(), nftIds[i], block.timestamp);\n        }\n\n        return true;\n    }\n}\n",
  "sourcePath": "/Users/tabatrung/Documents/Work/NFTGameTamQuoc/projects/public/MAT-nft/contracts/MarketV1.sol",
  "compiler": {
    "name": "solc",
    "version": "0.8.6+commit.11564f7e.Emscripten.clang"
  },
  "schemaVersion": "3.2.0",
  "updatedAt": "2021-09-26T16:08:34.470Z",
  "devdoc": {
    "kind": "dev",
    "methods": {
      "owner()": {
        "details": "Returns the address of the current owner."
      },
      "pause()": {
        "details": "called by the owner to pause, triggers stopped state"
      },
      "renounceOwnership()": {
        "details": "Leaves the contract without owner. It will not be possible to call `onlyOwner` functions anymore. Can only be called by the current owner. NOTE: Renouncing ownership will leave the contract without an owner, thereby removing any functionality that is only available to the owner."
      },
      "transferOwnership(address)": {
        "details": "Transfers ownership of the contract to a new account (`newOwner`). Can only be called by the current owner."
      },
      "unpause()": {
        "details": "called by the owner to unpause, returns to normal state"
      }
    },
    "version": 1
  },
  "userdoc": {
    "kind": "user",
    "methods": {},
    "version": 1
  }
}