{
  "contractName": "MarketAccessManager",
  "abi": [
    {
      "anonymous": false,
      "inputs": [
        {
          "indexed": true,
          "internalType": "address",
          "name": "previousOwner",
          "type": "address"
        },
        {
          "indexed": true,
          "internalType": "address",
          "name": "newOwner",
          "type": "address"
        }
      ],
      "name": "OwnershipTransferred",
      "type": "event"
    },
    {
      "inputs": [],
      "name": "owner",
      "outputs": [
        {
          "internalType": "address",
          "name": "",
          "type": "address"
        }
      ],
      "stateMutability": "view",
      "type": "function"
    },
    {
      "inputs": [],
      "name": "renounceOwnership",
      "outputs": [],
      "stateMutability": "nonpayable",
      "type": "function"
    },
    {
      "inputs": [
        {
          "internalType": "address",
          "name": "newOwner",
          "type": "address"
        }
      ],
      "name": "transferOwnership",
      "outputs": [],
      "stateMutability": "nonpayable",
      "type": "function"
    },
    {
      "inputs": [
        {
          "internalType": "address",
          "name": "_to",
          "type": "address"
        },
        {
          "internalType": "bool",
          "name": "_isWhilelist",
          "type": "bool"
        }
      ],
      "name": "setListingWhilelist",
      "outputs": [],
      "stateMutability": "nonpayable",
      "type": "function"
    },
    {
      "inputs": [
        {
          "internalType": "bool",
          "name": "_listingPublicAll",
          "type": "bool"
        }
      ],
      "name": "setListingPublicAll",
      "outputs": [],
      "stateMutability": "nonpayable",
      "type": "function"
    },
    {
      "inputs": [
        {
          "internalType": "address",
          "name": "_caller",
          "type": "address"
        }
      ],
      "name": "isListingAllowed",
      "outputs": [
        {
          "internalType": "bool",
          "name": "",
          "type": "bool"
        }
      ],
      "stateMutability": "view",
      "type": "function"
    }
  ],
  "bytecode": "0x608060405234801561001057600080fd5b50600080546001600160a01b031916339081178255604051909182917f8be0079c531659141344cd1fd0a4f28419497f9722a3daafe3b4186f6b6457e0908290a35061042f806100616000396000f3fe608060405234801561001057600080fd5b50600436106100625760003560e01c806340783a6514610067578063715018a61461008f5780638da5cb5b1461009957806394054936146100b4578063b1ec7696146100c7578063f2fde38b146100da575b600080fd5b61007a610075366004610354565b6100ed565b60405190151581526020015b60405180910390f35b610097610124565b005b6000546040516001600160a01b039091168152602001610086565b6100976100c2366004610376565b6101a1565b6100976100d53660046103a9565b6101f6565b6100976100e8366004610354565b61023e565b60008054600160a01b900460ff168061011e57506001600160a01b03821660009081526001602052604090205460ff165b92915050565b6000546001600160a01b031633146101575760405162461bcd60e51b815260040161014e906103c4565b60405180910390fd5b600080546040516001600160a01b03909116907f8be0079c531659141344cd1fd0a4f28419497f9722a3daafe3b4186f6b6457e0908390a3600080546001600160a01b0319169055565b6000546001600160a01b031633146101cb5760405162461bcd60e51b815260040161014e906103c4565b6001600160a01b03919091166000908152600160205260409020805460ff1916911515919091179055565b6000546001600160a01b031633146102205760405162461bcd60e51b815260040161014e906103c4565b60008054911515600160a01b0260ff60a01b19909216919091179055565b6000546001600160a01b031633146102685760405162461bcd60e51b815260040161014e906103c4565b6001600160a01b0381166102cd5760405162461bcd60e51b815260206004820152602660248201527f4f776e61626c653a206e6577206f776e657220697320746865207a65726f206160448201526564647265737360d01b606482015260840161014e565b600080546040516001600160a01b03808516939216917f8be0079c531659141344cd1fd0a4f28419497f9722a3daafe3b4186f6b6457e091a3600080546001600160a01b0319166001600160a01b0392909216919091179055565b80356001600160a01b038116811461033f57600080fd5b919050565b8035801515811461033f57600080fd5b60006020828403121561036657600080fd5b61036f82610328565b9392505050565b6000806040838503121561038957600080fd5b61039283610328565b91506103a060208401610344565b90509250929050565b6000602082840312156103bb57600080fd5b61036f82610344565b6020808252818101527f4f776e61626c653a2063616c6c6572206973206e6f7420746865206f776e657260408201526060019056fea264697066735822122031f77b201da6c83c42d766b62075425022f5b3c0b16d0d30f5f66ae5c2c2bd7264736f6c63430008060033",
  "immutableReferences": {},
  "source": "// SPDX-License-Identifier: MIT\npragma solidity 0.8.6;\n\nimport \"./IMarketAccessManager.sol\";\nimport \"./Ownable.sol\";\n\ncontract MarketAccessManager is IMarketAccessManager, Ownable {\n    bool listingPublicAll;\n\n    mapping(address => bool) listingWhilelist;\n\n    function setListingWhilelist(address _to, bool _isWhilelist)\n        public\n        onlyOwner\n    {\n        listingWhilelist[_to] = _isWhilelist;\n    }\n\n    function setListingPublicAll(bool _listingPublicAll) public onlyOwner {\n        listingPublicAll = _listingPublicAll;\n    }\n\n    function isListingAllowed(address _caller)\n        external\n        view\n        override\n        returns (bool)\n    {\n        return listingPublicAll || listingWhilelist[_caller];\n    }\n}\n",
  "sourcePath": "/Users/tabatrung/Documents/Work/NFTGameTamQuoc/projects/public/MAT-nft/contracts/access/MarketAccessManager.sol",
  "compiler": {
    "name": "solc",
    "version": "0.8.6+commit.11564f7e.Emscripten.clang"
  },
  "schemaVersion": "3.2.0",
  "updatedAt": "2021-09-26T16:08:34.531Z",
  "devdoc": {
    "kind": "dev",
    "methods": {
      "owner()": {
        "details": "Returns the address of the current owner."
      },
      "renounceOwnership()": {
        "details": "Leaves the contract without owner. It will not be possible to call `onlyOwner` functions anymore. Can only be called by the current owner. NOTE: Renouncing ownership will leave the contract without an owner, thereby removing any functionality that is only available to the owner."
      },
      "transferOwnership(address)": {
        "details": "Transfers ownership of the contract to a new account (`newOwner`). Can only be called by the current owner."
      }
    },
    "version": 1
  },
  "userdoc": {
    "kind": "user",
    "methods": {},
    "version": 1
  }
}