{
  "contractName": "MarketV1Storage",
  "abi": [
    {
      "anonymous": false,
      "inputs": [
        {
          "indexed": true,
          "internalType": "address",
          "name": "previousOwner",
          "type": "address"
        },
        {
          "indexed": true,
          "internalType": "address",
          "name": "newOwner",
          "type": "address"
        }
      ],
      "name": "OwnershipTransferred",
      "type": "event"
    },
    {
      "inputs": [
        {
          "internalType": "uint256",
          "name": "",
          "type": "uint256"
        }
      ],
      "name": "items",
      "outputs": [
        {
          "internalType": "address",
          "name": "owner",
          "type": "address"
        },
        {
          "internalType": "address",
          "name": "currency",
          "type": "address"
        },
        {
          "internalType": "uint256",
          "name": "price",
          "type": "uint256"
        }
      ],
      "stateMutability": "view",
      "type": "function"
    },
    {
      "inputs": [],
      "name": "owner",
      "outputs": [
        {
          "internalType": "address",
          "name": "",
          "type": "address"
        }
      ],
      "stateMutability": "view",
      "type": "function"
    },
    {
      "inputs": [],
      "name": "renounceOwnership",
      "outputs": [],
      "stateMutability": "nonpayable",
      "type": "function"
    },
    {
      "inputs": [
        {
          "internalType": "address",
          "name": "newOwner",
          "type": "address"
        }
      ],
      "name": "transferOwnership",
      "outputs": [],
      "stateMutability": "nonpayable",
      "type": "function"
    },
    {
      "inputs": [
        {
          "internalType": "address",
          "name": "_user",
          "type": "address"
        },
        {
          "internalType": "bool",
          "name": "_isWhilelist",
          "type": "bool"
        }
      ],
      "name": "setWhilelist",
      "outputs": [],
      "stateMutability": "nonpayable",
      "type": "function"
    },
    {
      "inputs": [
        {
          "internalType": "uint256",
          "name": "_nftId",
          "type": "uint256"
        },
        {
          "internalType": "address",
          "name": "_owner",
          "type": "address"
        },
        {
          "internalType": "address",
          "name": "_currency",
          "type": "address"
        },
        {
          "internalType": "uint256",
          "name": "_price",
          "type": "uint256"
        }
      ],
      "name": "addItem",
      "outputs": [],
      "stateMutability": "nonpayable",
      "type": "function"
    },
    {
      "inputs": [
        {
          "internalType": "uint256[]",
          "name": "_nftIds",
          "type": "uint256[]"
        },
        {
          "internalType": "address[]",
          "name": "_owners",
          "type": "address[]"
        },
        {
          "internalType": "address[]",
          "name": "_currencies",
          "type": "address[]"
        },
        {
          "internalType": "uint256[]",
          "name": "_prices",
          "type": "uint256[]"
        }
      ],
      "name": "addItems",
      "outputs": [],
      "stateMutability": "nonpayable",
      "type": "function"
    },
    {
      "inputs": [
        {
          "internalType": "uint256",
          "name": "_nftId",
          "type": "uint256"
        }
      ],
      "name": "deleteItem",
      "outputs": [],
      "stateMutability": "nonpayable",
      "type": "function"
    },
    {
      "inputs": [
        {
          "internalType": "uint256[]",
          "name": "_nftIds",
          "type": "uint256[]"
        }
      ],
      "name": "deleteItems",
      "outputs": [],
      "stateMutability": "nonpayable",
      "type": "function"
    },
    {
      "inputs": [
        {
          "internalType": "uint256",
          "name": "_nftId",
          "type": "uint256"
        },
        {
          "internalType": "address",
          "name": "_owner",
          "type": "address"
        },
        {
          "internalType": "address",
          "name": "_currency",
          "type": "address"
        },
        {
          "internalType": "uint256",
          "name": "_price",
          "type": "uint256"
        }
      ],
      "name": "updateItem",
      "outputs": [],
      "stateMutability": "nonpayable",
      "type": "function"
    },
    {
      "inputs": [
        {
          "internalType": "uint256",
          "name": "_nftId",
          "type": "uint256"
        }
      ],
      "name": "getItem",
      "outputs": [
        {
          "internalType": "address",
          "name": "",
          "type": "address"
        },
        {
          "internalType": "address",
          "name": "",
          "type": "address"
        },
        {
          "internalType": "uint256",
          "name": "",
          "type": "uint256"
        }
      ],
      "stateMutability": "view",
      "type": "function"
    }
  ],
  "bytecode": "0x608060405234801561001057600080fd5b50600080546001600160a01b031916339081178255604051909182917f8be0079c531659141344cd1fd0a4f28419497f9722a3daafe3b4186f6b6457e0908290a3506109bb806100616000396000f3fe608060405234801561001057600080fd5b50600436106100a95760003560e01c80638da5cb5b116100715780638da5cb5b14610180578063905a9e59146100ae578063af8160ee1461019b578063bc4c4bbe146101ae578063bfb231d2146101c1578063f2fde38b146101ff57600080fd5b80630a0744d6146100ae5780633129e773146100c3578063497525541461012c578063654fc83314610165578063715018a614610178575b600080fd5b6100c16100bc366004610860565b610212565b005b6101016100d1366004610847565b60009081526001602081905260409091208054918101546002909101546001600160a01b03928316939290911691565b604080516001600160a01b039485168152939092166020840152908201526060015b60405180910390f35b6100c161013a366004610721565b6001600160a01b03919091166000908152600260205260409020805460ff1916911515919091179055565b6100c1610173366004610847565b6102b5565b6100c1610315565b6000546040516001600160a01b039091168152602001610123565b6100c16101a936600461075d565b6103b9565b6100c16101bc36600461079a565b61042c565b6101016101cf366004610847565b60016020819052600091825260409091208054918101546002909101546001600160a01b03928316929091169083565b6100c161020d3660046106ff565b6104f0565b3360009081526002602052604090205460ff1661024a5760405162461bcd60e51b8152600401610241906108a4565b60405180910390fd5b604080516060810182526001600160a01b0394851681529284166020808501918252848301938452600096875260019081905291909520925183549085166001600160a01b031991821617845594519083018054919094169416939093179091559051600290910155565b3360009081526002602052604090205460ff166102e45760405162461bcd60e51b8152600401610241906108a4565b6000908152600160208190526040822080546001600160a01b03199081168255918101805490921690915560020155565b6000546001600160a01b0316331461036f5760405162461bcd60e51b815260206004820181905260248201527f4f776e61626c653a2063616c6c6572206973206e6f7420746865206f776e65726044820152606401610241565b600080546040516001600160a01b03909116907f8be0079c531659141344cd1fd0a4f28419497f9722a3daafe3b4186f6b6457e0908390a3600080546001600160a01b0319169055565b3360009081526002602052604090205460ff166103e85760405162461bcd60e51b8152600401610241906108a4565b60005b81518110156104285761041682828151811061040957610409610959565b60200260200101516102b5565b8061042081610930565b9150506103eb565b5050565b3360009081526002602052604090205460ff1661045b5760405162461bcd60e51b8152600401610241906108a4565b60005b84518110156104e9576104d785828151811061047c5761047c610959565b602002602001015185838151811061049657610496610959565b60200260200101518584815181106104b0576104b0610959565b60200260200101518585815181106104ca576104ca610959565b6020026020010151610212565b806104e181610930565b91505061045e565b5050505050565b6000546001600160a01b0316331461054a5760405162461bcd60e51b815260206004820181905260248201527f4f776e61626c653a2063616c6c6572206973206e6f7420746865206f776e65726044820152606401610241565b6001600160a01b0381166105af5760405162461bcd60e51b815260206004820152602660248201527f4f776e61626c653a206e6577206f776e657220697320746865207a65726f206160448201526564647265737360d01b6064820152608401610241565b600080546040516001600160a01b03808516939216917f8be0079c531659141344cd1fd0a4f28419497f9722a3daafe3b4186f6b6457e091a3600080546001600160a01b0319166001600160a01b0392909216919091179055565b80356001600160a01b038116811461062157600080fd5b919050565b600082601f83011261063757600080fd5b8135602061064c6106478361090c565b6108db565b80838252828201915082860187848660051b890101111561066c57600080fd5b60005b85811015610692576106808261060a565b8452928401929084019060010161066f565b5090979650505050505050565b600082601f8301126106b057600080fd5b813560206106c06106478361090c565b80838252828201915082860187848660051b89010111156106e057600080fd5b60005b85811015610692578135845292840192908401906001016106e3565b60006020828403121561071157600080fd5b61071a8261060a565b9392505050565b6000806040838503121561073457600080fd5b61073d8361060a565b91506020830135801515811461075257600080fd5b809150509250929050565b60006020828403121561076f57600080fd5b813567ffffffffffffffff81111561078657600080fd5b6107928482850161069f565b949350505050565b600080600080608085870312156107b057600080fd5b843567ffffffffffffffff808211156107c857600080fd5b6107d48883890161069f565b955060208701359150808211156107ea57600080fd5b6107f688838901610626565b9450604087013591508082111561080c57600080fd5b61081888838901610626565b9350606087013591508082111561082e57600080fd5b5061083b8782880161069f565b91505092959194509250565b60006020828403121561085957600080fd5b5035919050565b6000806000806080858703121561087657600080fd5b843593506108866020860161060a565b92506108946040860161060a565b9396929550929360600135925050565b60208082526017908201527f53746f726167653a206f6e6c79207768696c656c697374000000000000000000604082015260600190565b604051601f8201601f1916810167ffffffffffffffff811182821017156109045761090461096f565b604052919050565b600067ffffffffffffffff8211156109265761092661096f565b5060051b60200190565b600060001982141561095257634e487b7160e01b600052601160045260246000fd5b5060010190565b634e487b7160e01b600052603260045260246000fd5b634e487b7160e01b600052604160045260246000fdfea2646970667358221220a3eddec1d40c500cb80a12641c04435ff2db40daa9aadd5e9647f4074d223a4364736f6c63430008060033",
  "immutableReferences": {},
  "source": "// SPDX-License-Identifier: MIT\npragma solidity 0.8.6;\n\nimport \"./access/Ownable.sol\";\n\ncontract MarketV1Storage is Ownable {\n    struct Item {\n        address owner;\n        address currency;\n        uint256 price;\n    }\n    mapping(uint256 => Item) public items;\n    mapping(address => bool) whilelists;\n\n    modifier onlyWhilelist() {\n        require(whilelists[_msgSender()], \"Storage: only whilelist\");\n        _;\n    }\n\n    function setWhilelist(address _user, bool _isWhilelist) external {\n        whilelists[_user] = _isWhilelist;\n    }\n\n    function addItem(\n        uint256 _nftId,\n        address _owner,\n        address _currency,\n        uint256 _price\n    ) public onlyWhilelist {\n        items[_nftId] = Item(_owner, _currency, _price);\n    }\n\n    function addItems(\n        uint256[] memory _nftIds,\n        address[] memory _owners,\n        address[] memory _currencies,\n        uint256[] memory _prices\n    ) external onlyWhilelist {\n        for (uint256 i = 0; i < _nftIds.length; i++) {\n            addItem(_nftIds[i], _owners[i], _currencies[i], _prices[i]);\n        }\n    }\n\n    function deleteItem(uint256 _nftId) public onlyWhilelist {\n        delete items[_nftId];\n    }\n\n    function deleteItems(uint256[] memory _nftIds) external onlyWhilelist {\n        for (uint256 i = 0; i < _nftIds.length; i++) {\n            deleteItem(_nftIds[i]);\n        }\n    }\n\n    function updateItem(\n        uint256 _nftId,\n        address _owner,\n        address _currency,\n        uint256 _price\n    ) external onlyWhilelist {\n        items[_nftId] = Item(_owner, _currency, _price);\n    }\n\n    function getItem(uint256 _nftId)\n        external\n        view\n        returns (\n            address,\n            address,\n            uint256\n        )\n    {\n        return (\n            items[_nftId].owner,\n            items[_nftId].currency,\n            items[_nftId].price\n        );\n    }\n}\n",
  "sourcePath": "/Users/tabatrung/Documents/Work/NFTGameTamQuoc/projects/public/MAT-nft/contracts/MarketV1Storage.sol",
  "compiler": {
    "name": "solc",
    "version": "0.8.6+commit.11564f7e.Emscripten.clang"
  },
  "schemaVersion": "3.2.0",
  "updatedAt": "2021-09-26T16:08:34.507Z",
  "devdoc": {
    "kind": "dev",
    "methods": {
      "owner()": {
        "details": "Returns the address of the current owner."
      },
      "renounceOwnership()": {
        "details": "Leaves the contract without owner. It will not be possible to call `onlyOwner` functions anymore. Can only be called by the current owner. NOTE: Renouncing ownership will leave the contract without an owner, thereby removing any functionality that is only available to the owner."
      },
      "transferOwnership(address)": {
        "details": "Transfers ownership of the contract to a new account (`newOwner`). Can only be called by the current owner."
      }
    },
    "version": 1
  },
  "userdoc": {
    "kind": "user",
    "methods": {},
    "version": 1
  }
}