{
  "contractName": "MATAccessManager",
  "abi": [
    {
      "anonymous": false,
      "inputs": [
        {
          "indexed": true,
          "internalType": "address",
          "name": "previousOwner",
          "type": "address"
        },
        {
          "indexed": true,
          "internalType": "address",
          "name": "newOwner",
          "type": "address"
        }
      ],
      "name": "OwnershipTransferred",
      "type": "event"
    },
    {
      "inputs": [],
      "name": "owner",
      "outputs": [
        {
          "internalType": "address",
          "name": "",
          "type": "address"
        }
      ],
      "stateMutability": "view",
      "type": "function"
    },
    {
      "inputs": [],
      "name": "renounceOwnership",
      "outputs": [],
      "stateMutability": "nonpayable",
      "type": "function"
    },
    {
      "inputs": [
        {
          "internalType": "address",
          "name": "newOwner",
          "type": "address"
        }
      ],
      "name": "transferOwnership",
      "outputs": [],
      "stateMutability": "nonpayable",
      "type": "function"
    },
    {
      "inputs": [
        {
          "internalType": "bool",
          "name": "_publicAll",
          "type": "bool"
        }
      ],
      "name": "setPublicAll",
      "outputs": [],
      "stateMutability": "nonpayable",
      "type": "function"
    },
    {
      "inputs": [
        {
          "internalType": "address",
          "name": "_to",
          "type": "address"
        },
        {
          "internalType": "bool",
          "name": "_isWhilelist",
          "type": "bool"
        }
      ],
      "name": "setBornWhilelist",
      "outputs": [],
      "stateMutability": "nonpayable",
      "type": "function"
    },
    {
      "inputs": [
        {
          "internalType": "address",
          "name": "_to",
          "type": "address"
        },
        {
          "internalType": "bool",
          "name": "_isWhilelist",
          "type": "bool"
        }
      ],
      "name": "setEvolveWhilelist",
      "outputs": [],
      "stateMutability": "nonpayable",
      "type": "function"
    },
    {
      "inputs": [
        {
          "internalType": "address",
          "name": "_to",
          "type": "address"
        },
        {
          "internalType": "bool",
          "name": "_isWhilelist",
          "type": "bool"
        }
      ],
      "name": "setBreedWhilelist",
      "outputs": [],
      "stateMutability": "nonpayable",
      "type": "function"
    },
    {
      "inputs": [
        {
          "internalType": "address",
          "name": "_to",
          "type": "address"
        },
        {
          "internalType": "bool",
          "name": "_isWhilelist",
          "type": "bool"
        }
      ],
      "name": "setDestroyWhilelist",
      "outputs": [],
      "stateMutability": "nonpayable",
      "type": "function"
    },
    {
      "inputs": [
        {
          "internalType": "bool",
          "name": "_bornPublicAll",
          "type": "bool"
        }
      ],
      "name": "setBornPublicAll",
      "outputs": [],
      "stateMutability": "nonpayable",
      "type": "function"
    },
    {
      "inputs": [
        {
          "internalType": "bool",
          "name": "_evolvePublicAll",
          "type": "bool"
        }
      ],
      "name": "setEvolvePublicAll",
      "outputs": [],
      "stateMutability": "nonpayable",
      "type": "function"
    },
    {
      "inputs": [
        {
          "internalType": "bool",
          "name": "_breedPublicAll",
          "type": "bool"
        }
      ],
      "name": "setBreedPublicAll",
      "outputs": [],
      "stateMutability": "nonpayable",
      "type": "function"
    },
    {
      "inputs": [
        {
          "internalType": "bool",
          "name": "_destroyPublicAll",
          "type": "bool"
        }
      ],
      "name": "setDestroyPublicAll",
      "outputs": [],
      "stateMutability": "nonpayable",
      "type": "function"
    },
    {
      "inputs": [
        {
          "internalType": "address",
          "name": "_caller",
          "type": "address"
        },
        {
          "internalType": "uint256",
          "name": "_gene",
          "type": "uint256"
        }
      ],
      "name": "isBornAllowed",
      "outputs": [
        {
          "internalType": "bool",
          "name": "",
          "type": "bool"
        }
      ],
      "stateMutability": "view",
      "type": "function"
    },
    {
      "inputs": [
        {
          "internalType": "address",
          "name": "_caller",
          "type": "address"
        },
        {
          "internalType": "uint256",
          "name": "_gene",
          "type": "uint256"
        },
        {
          "internalType": "uint256",
          "name": "_nftId",
          "type": "uint256"
        }
      ],
      "name": "isEvolveAllowed",
      "outputs": [
        {
          "internalType": "bool",
          "name": "",
          "type": "bool"
        }
      ],
      "stateMutability": "view",
      "type": "function"
    },
    {
      "inputs": [
        {
          "internalType": "address",
          "name": "_caller",
          "type": "address"
        },
        {
          "internalType": "uint256",
          "name": "_nftId1",
          "type": "uint256"
        },
        {
          "internalType": "uint256",
          "name": "_nftId2",
          "type": "uint256"
        }
      ],
      "name": "isBreedAllowed",
      "outputs": [
        {
          "internalType": "bool",
          "name": "",
          "type": "bool"
        }
      ],
      "stateMutability": "view",
      "type": "function"
    },
    {
      "inputs": [
        {
          "internalType": "address",
          "name": "_caller",
          "type": "address"
        },
        {
          "internalType": "uint256",
          "name": "_nftId",
          "type": "uint256"
        }
      ],
      "name": "isDestroyAllowed",
      "outputs": [
        {
          "internalType": "bool",
          "name": "",
          "type": "bool"
        }
      ],
      "stateMutability": "view",
      "type": "function"
    }
  ],
  "bytecode": "0x608060405234801561001057600080fd5b50600080546001600160a01b031916339081178255604051909182917f8be0079c531659141344cd1fd0a4f28419497f9722a3daafe3b4186f6b6457e0908290a3506108f3806100616000396000f3fe608060405234801561001057600080fd5b50600436106101005760003560e01c80637d213d4811610097578063adfdcbed11610066578063adfdcbed146101fd578063ca64778214610210578063f2fde38b14610223578063f3aed5bd1461023657600080fd5b80637d213d48146101a95780638da5cb5b146101bc5780639f277326146101d7578063a207aabf146101ea57600080fd5b806320470e72116100d357806320470e72146101685780634f7b6a9f1461017b578063589d64401461018e578063715018a6146101a157600080fd5b806305a05331146101055780631b0dee181461011a5780631c59d7301461012d5780631d9314df14610155575b600080fd5b61011861011336600461086d565b610249565b005b6101186101283660046107dd565b61029a565b61014061013b366004610810565b6102ef565b60405190151581526020015b60405180910390f35b6101186101633660046107dd565b61033b565b61014061017636600461083a565b610390565b610140610189366004610810565b6103dd565b61011861019c36600461086d565b610425565b61011861046d565b6101406101b736600461083a565b6104e1565b6000546040516001600160a01b03909116815260200161014c565b6101186101e536600461086d565b61052a565b6101186101f836600461086d565b610572565b61011861020b3660046107dd565b6105ba565b61011861021e3660046107dd565b61060f565b6101186102313660046107c2565b610664565b61011861024436600461086d565b61074e565b6000546001600160a01b0316331461027c5760405162461bcd60e51b815260040161027390610888565b60405180910390fd5b60008054911515600160b81b0260ff60b81b19909216919091179055565b6000546001600160a01b031633146102c45760405162461bcd60e51b815260040161027390610888565b6001600160a01b03919091166000908152600260205260409020805460ff1916911515919091179055565b60008054600160a01b900460ff16806103115750600054600160a81b900460ff165b8061033457506001600160a01b03831660009081526001602052604090205460ff165b9392505050565b6000546001600160a01b031633146103655760405162461bcd60e51b815260040161027390610888565b6001600160a01b03919091166000908152600360205260409020805460ff1916911515919091179055565b60008054600160a01b900460ff16806103b25750600054600160a81b900460ff165b806103d557506001600160a01b03841660009081526003602052604090205460ff165b949350505050565b60008054600160a01b900460ff16806103ff5750600054600160a81b900460ff165b80610334575050506001600160a01b031660009081526004602052604090205460ff1690565b6000546001600160a01b0316331461044f5760405162461bcd60e51b815260040161027390610888565b60008054911515600160a81b0260ff60a81b19909216919091179055565b6000546001600160a01b031633146104975760405162461bcd60e51b815260040161027390610888565b600080546040516001600160a01b03909116907f8be0079c531659141344cd1fd0a4f28419497f9722a3daafe3b4186f6b6457e0908390a3600080546001600160a01b0319169055565b60008054600160a01b900460ff16806105035750600054600160a81b900460ff165b806103d557505050506001600160a01b031660009081526002602052604090205460ff1690565b6000546001600160a01b031633146105545760405162461bcd60e51b815260040161027390610888565b60008054911515600160c01b0260ff60c01b19909216919091179055565b6000546001600160a01b0316331461059c5760405162461bcd60e51b815260040161027390610888565b60008054911515600160a01b0260ff60a01b19909216919091179055565b6000546001600160a01b031633146105e45760405162461bcd60e51b815260040161027390610888565b6001600160a01b03919091166000908152600460205260409020805460ff1916911515919091179055565b6000546001600160a01b031633146106395760405162461bcd60e51b815260040161027390610888565b6001600160a01b03919091166000908152600160205260409020805460ff1916911515919091179055565b6000546001600160a01b0316331461068e5760405162461bcd60e51b815260040161027390610888565b6001600160a01b0381166106f35760405162461bcd60e51b815260206004820152602660248201527f4f776e61626c653a206e6577206f776e657220697320746865207a65726f206160448201526564647265737360d01b6064820152608401610273565b600080546040516001600160a01b03808516939216917f8be0079c531659141344cd1fd0a4f28419497f9722a3daafe3b4186f6b6457e091a3600080546001600160a01b0319166001600160a01b0392909216919091179055565b6000546001600160a01b031633146107785760405162461bcd60e51b815260040161027390610888565b60008054911515600160b01b0260ff60b01b19909216919091179055565b80356001600160a01b03811681146107ad57600080fd5b919050565b803580151581146107ad57600080fd5b6000602082840312156107d457600080fd5b61033482610796565b600080604083850312156107f057600080fd5b6107f983610796565b9150610807602084016107b2565b90509250929050565b6000806040838503121561082357600080fd5b61082c83610796565b946020939093013593505050565b60008060006060848603121561084f57600080fd5b61085884610796565b95602085013595506040909401359392505050565b60006020828403121561087f57600080fd5b610334826107b2565b6020808252818101527f4f776e61626c653a2063616c6c6572206973206e6f7420746865206f776e657260408201526060019056fea264697066735822122047877d898e2f2241b94ab49bf398966dee6e405e4d5ae17d3a1c1954fda3b5d964736f6c63430008060033",
  "immutableReferences": {},
  "source": "// SPDX-License-Identifier: MIT\npragma solidity 0.8.6;\n\nimport \"./IMATAccessManager.sol\";\nimport \"./Ownable.sol\";\n\ncontract MATAccessManager is IMATAccessManager, Ownable {\n    bool publicAll;\n    bool bornPublicAll;\n    bool evolvePublicAll;\n    bool breedPublicAll;\n    bool destroyPublicAll;\n\n    mapping(address => bool) bornWhilelist;\n    mapping(address => bool) evolveWhilelist;\n    mapping(address => bool) breedWhilelist;\n    mapping(address => bool) destroyWhilelist;\n\n    function setPublicAll(bool _publicAll) public onlyOwner {\n        publicAll = _publicAll;\n    }\n\n    function setBornWhilelist(address _to, bool _isWhilelist) public onlyOwner {\n        bornWhilelist[_to] = _isWhilelist;\n    }\n\n    function setEvolveWhilelist(address _to, bool _isWhilelist)\n        public\n        onlyOwner\n    {\n        evolveWhilelist[_to] = _isWhilelist;\n    }\n\n    function setBreedWhilelist(address _to, bool _isWhilelist)\n        public\n        onlyOwner\n    {\n        breedWhilelist[_to] = _isWhilelist;\n    }\n\n    function setDestroyWhilelist(address _to, bool _isWhilelist)\n        public\n        onlyOwner\n    {\n        destroyWhilelist[_to] = _isWhilelist;\n    }\n\n    function setBornPublicAll(bool _bornPublicAll) public onlyOwner {\n        bornPublicAll = _bornPublicAll;\n    }\n\n    function setEvolvePublicAll(bool _evolvePublicAll) public onlyOwner {\n        evolvePublicAll = _evolvePublicAll;\n    }\n\n    function setBreedPublicAll(bool _breedPublicAll) public onlyOwner {\n        breedPublicAll = _breedPublicAll;\n    }\n\n    function setDestroyPublicAll(bool _destroyPublicAll) public onlyOwner {\n        destroyPublicAll = _destroyPublicAll;\n    }\n\n    function isBornAllowed(address _caller, uint256 _gene)\n        external\n        view\n        override\n        returns (bool)\n    {\n        //TODO: can check _gene validation\n        return publicAll || bornPublicAll || bornWhilelist[_caller];\n    }\n\n    function isEvolveAllowed(\n        address _caller,\n        uint256 _gene,\n        uint256 _nftId\n    ) external view override returns (bool) {\n        //TODO: can check _gene and _nftId validation\n        return publicAll || bornPublicAll || evolveWhilelist[_caller];\n    }\n\n    function isBreedAllowed(\n        address _caller,\n        uint256 _nftId1,\n        uint256 _nftId2\n    ) external view override returns (bool) {\n        //TODO: can check _gene and _nftId validation\n        return publicAll || bornPublicAll || breedWhilelist[_caller];\n    }\n\n    function isDestroyAllowed(address _caller, uint256 _nftId)\n        external\n        view\n        override\n        returns (bool)\n    {\n        //TODO: can check _gene and _nftId validation\n        return publicAll || bornPublicAll || destroyWhilelist[_caller];\n    }\n}\n",
  "sourcePath": "/Users/tabatrung/Documents/Work/NFTGameTamQuoc/projects/public/MAT-nft/contracts/access/MATAccessManager.sol",
  "compiler": {
    "name": "solc",
    "version": "0.8.6+commit.11564f7e.Emscripten.clang"
  },
  "schemaVersion": "3.2.0",
  "updatedAt": "2021-09-26T16:08:34.525Z",
  "devdoc": {
    "kind": "dev",
    "methods": {
      "owner()": {
        "details": "Returns the address of the current owner."
      },
      "renounceOwnership()": {
        "details": "Leaves the contract without owner. It will not be possible to call `onlyOwner` functions anymore. Can only be called by the current owner. NOTE: Renouncing ownership will leave the contract without an owner, thereby removing any functionality that is only available to the owner."
      },
      "transferOwnership(address)": {
        "details": "Transfers ownership of the contract to a new account (`newOwner`). Can only be called by the current owner."
      }
    },
    "version": 1
  },
  "userdoc": {
    "kind": "user",
    "methods": {},
    "version": 1
  }
}