{
  "contractName": "MyMasterWarCore",
  "abi": [
    {
      "inputs": [
        {
          "internalType": "contract IMATAccessManager",
          "name": "_MATAccessManager",
          "type": "address"
        },
        {
          "internalType": "contract CoreFee",
          "name": "_coreFee",
          "type": "address"
        }
      ],
      "stateMutability": "nonpayable",
      "type": "constructor"
    },
    {
      "anonymous": false,
      "inputs": [
        {
          "indexed": true,
          "internalType": "address",
          "name": "owner",
          "type": "address"
        },
        {
          "indexed": true,
          "internalType": "address",
          "name": "approved",
          "type": "address"
        },
        {
          "indexed": true,
          "internalType": "uint256",
          "name": "tokenId",
          "type": "uint256"
        }
      ],
      "name": "Approval",
      "type": "event"
    },
    {
      "anonymous": false,
      "inputs": [
        {
          "indexed": true,
          "internalType": "address",
          "name": "owner",
          "type": "address"
        },
        {
          "indexed": true,
          "internalType": "address",
          "name": "operator",
          "type": "address"
        },
        {
          "indexed": false,
          "internalType": "bool",
          "name": "approved",
          "type": "bool"
        }
      ],
      "name": "ApprovalForAll",
      "type": "event"
    },
    {
      "anonymous": false,
      "inputs": [
        {
          "indexed": true,
          "internalType": "address",
          "name": "caller",
          "type": "address"
        },
        {
          "indexed": true,
          "internalType": "address",
          "name": "to",
          "type": "address"
        },
        {
          "indexed": true,
          "internalType": "uint256",
          "name": "nftId",
          "type": "uint256"
        },
        {
          "indexed": false,
          "internalType": "uint256",
          "name": "gene",
          "type": "uint256"
        },
        {
          "indexed": false,
          "internalType": "uint256",
          "name": "time",
          "type": "uint256"
        }
      ],
      "name": "Born",
      "type": "event"
    },
    {
      "anonymous": false,
      "inputs": [
        {
          "indexed": true,
          "internalType": "address",
          "name": "caller",
          "type": "address"
        },
        {
          "indexed": true,
          "internalType": "address",
          "name": "to",
          "type": "address"
        },
        {
          "indexed": true,
          "internalType": "uint256",
          "name": "newNftId",
          "type": "uint256"
        },
        {
          "indexed": false,
          "internalType": "uint256",
          "name": "parent1",
          "type": "uint256"
        },
        {
          "indexed": false,
          "internalType": "uint256",
          "name": "parent2",
          "type": "uint256"
        },
        {
          "indexed": false,
          "internalType": "uint256",
          "name": "newGene",
          "type": "uint256"
        },
        {
          "indexed": false,
          "internalType": "uint256",
          "name": "time",
          "type": "uint256"
        }
      ],
      "name": "Breed",
      "type": "event"
    },
    {
      "anonymous": false,
      "inputs": [
        {
          "indexed": true,
          "internalType": "address",
          "name": "caller",
          "type": "address"
        },
        {
          "indexed": true,
          "internalType": "uint256",
          "name": "nftId",
          "type": "uint256"
        },
        {
          "indexed": false,
          "internalType": "uint256",
          "name": "time",
          "type": "uint256"
        }
      ],
      "name": "Destroy",
      "type": "event"
    },
    {
      "anonymous": false,
      "inputs": [
        {
          "indexed": true,
          "internalType": "address",
          "name": "caller",
          "type": "address"
        },
        {
          "indexed": true,
          "internalType": "uint256",
          "name": "nftID",
          "type": "uint256"
        },
        {
          "indexed": false,
          "internalType": "uint256",
          "name": "oldGene",
          "type": "uint256"
        },
        {
          "indexed": false,
          "internalType": "uint256",
          "name": "newGene",
          "type": "uint256"
        },
        {
          "indexed": false,
          "internalType": "uint256",
          "name": "time",
          "type": "uint256"
        }
      ],
      "name": "Evolve",
      "type": "event"
    },
    {
      "anonymous": false,
      "inputs": [
        {
          "indexed": true,
          "internalType": "address",
          "name": "previousOwner",
          "type": "address"
        },
        {
          "indexed": true,
          "internalType": "address",
          "name": "newOwner",
          "type": "address"
        }
      ],
      "name": "OwnershipTransferred",
      "type": "event"
    },
    {
      "anonymous": false,
      "inputs": [
        {
          "indexed": true,
          "internalType": "address",
          "name": "from",
          "type": "address"
        },
        {
          "indexed": true,
          "internalType": "address",
          "name": "to",
          "type": "address"
        },
        {
          "indexed": true,
          "internalType": "uint256",
          "name": "tokenId",
          "type": "uint256"
        }
      ],
      "name": "Transfer",
      "type": "event"
    },
    {
      "inputs": [
        {
          "internalType": "address",
          "name": "to",
          "type": "address"
        },
        {
          "internalType": "uint256",
          "name": "tokenId",
          "type": "uint256"
        }
      ],
      "name": "approve",
      "outputs": [],
      "stateMutability": "nonpayable",
      "type": "function"
    },
    {
      "inputs": [
        {
          "internalType": "address",
          "name": "owner",
          "type": "address"
        }
      ],
      "name": "balanceOf",
      "outputs": [
        {
          "internalType": "uint256",
          "name": "",
          "type": "uint256"
        }
      ],
      "stateMutability": "view",
      "type": "function"
    },
    {
      "inputs": [],
      "name": "baseURI",
      "outputs": [
        {
          "internalType": "string",
          "name": "",
          "type": "string"
        }
      ],
      "stateMutability": "view",
      "type": "function"
    },
    {
      "inputs": [],
      "name": "currentId",
      "outputs": [
        {
          "internalType": "uint256",
          "name": "",
          "type": "uint256"
        }
      ],
      "stateMutability": "view",
      "type": "function"
    },
    {
      "inputs": [
        {
          "internalType": "uint256",
          "name": "tokenId",
          "type": "uint256"
        }
      ],
      "name": "getApproved",
      "outputs": [
        {
          "internalType": "address",
          "name": "",
          "type": "address"
        }
      ],
      "stateMutability": "view",
      "type": "function"
    },
    {
      "inputs": [
        {
          "internalType": "address",
          "name": "owner",
          "type": "address"
        },
        {
          "internalType": "address",
          "name": "operator",
          "type": "address"
        }
      ],
      "name": "isApprovedForAll",
      "outputs": [
        {
          "internalType": "bool",
          "name": "",
          "type": "bool"
        }
      ],
      "stateMutability": "view",
      "type": "function"
    },
    {
      "inputs": [],
      "name": "name",
      "outputs": [
        {
          "internalType": "string",
          "name": "",
          "type": "string"
        }
      ],
      "stateMutability": "view",
      "type": "function"
    },
    {
      "inputs": [],
      "name": "owner",
      "outputs": [
        {
          "internalType": "address",
          "name": "",
          "type": "address"
        }
      ],
      "stateMutability": "view",
      "type": "function"
    },
    {
      "inputs": [
        {
          "internalType": "uint256",
          "name": "tokenId",
          "type": "uint256"
        }
      ],
      "name": "ownerOf",
      "outputs": [
        {
          "internalType": "address",
          "name": "",
          "type": "address"
        }
      ],
      "stateMutability": "view",
      "type": "function"
    },
    {
      "inputs": [],
      "name": "renounceOwnership",
      "outputs": [],
      "stateMutability": "nonpayable",
      "type": "function"
    },
    {
      "inputs": [
        {
          "internalType": "address",
          "name": "from",
          "type": "address"
        },
        {
          "internalType": "address",
          "name": "to",
          "type": "address"
        },
        {
          "internalType": "uint256",
          "name": "tokenId",
          "type": "uint256"
        }
      ],
      "name": "safeTransferFrom",
      "outputs": [],
      "stateMutability": "nonpayable",
      "type": "function"
    },
    {
      "inputs": [
        {
          "internalType": "address",
          "name": "from",
          "type": "address"
        },
        {
          "internalType": "address",
          "name": "to",
          "type": "address"
        },
        {
          "internalType": "uint256",
          "name": "tokenId",
          "type": "uint256"
        },
        {
          "internalType": "bytes",
          "name": "_data",
          "type": "bytes"
        }
      ],
      "name": "safeTransferFrom",
      "outputs": [],
      "stateMutability": "nonpayable",
      "type": "function"
    },
    {
      "inputs": [
        {
          "internalType": "address",
          "name": "operator",
          "type": "address"
        },
        {
          "internalType": "bool",
          "name": "approved",
          "type": "bool"
        }
      ],
      "name": "setApprovalForAll",
      "outputs": [],
      "stateMutability": "nonpayable",
      "type": "function"
    },
    {
      "inputs": [
        {
          "internalType": "bytes4",
          "name": "interfaceId",
          "type": "bytes4"
        }
      ],
      "name": "supportsInterface",
      "outputs": [
        {
          "internalType": "bool",
          "name": "",
          "type": "bool"
        }
      ],
      "stateMutability": "view",
      "type": "function"
    },
    {
      "inputs": [],
      "name": "symbol",
      "outputs": [
        {
          "internalType": "string",
          "name": "",
          "type": "string"
        }
      ],
      "stateMutability": "view",
      "type": "function"
    },
    {
      "inputs": [
        {
          "internalType": "uint256",
          "name": "index",
          "type": "uint256"
        }
      ],
      "name": "tokenByIndex",
      "outputs": [
        {
          "internalType": "uint256",
          "name": "",
          "type": "uint256"
        }
      ],
      "stateMutability": "view",
      "type": "function"
    },
    {
      "inputs": [
        {
          "internalType": "address",
          "name": "owner",
          "type": "address"
        },
        {
          "internalType": "uint256",
          "name": "index",
          "type": "uint256"
        }
      ],
      "name": "tokenOfOwnerByIndex",
      "outputs": [
        {
          "internalType": "uint256",
          "name": "",
          "type": "uint256"
        }
      ],
      "stateMutability": "view",
      "type": "function"
    },
    {
      "inputs": [
        {
          "internalType": "uint256",
          "name": "tokenId",
          "type": "uint256"
        }
      ],
      "name": "tokenURI",
      "outputs": [
        {
          "internalType": "string",
          "name": "",
          "type": "string"
        }
      ],
      "stateMutability": "view",
      "type": "function"
    },
    {
      "inputs": [],
      "name": "totalSupply",
      "outputs": [
        {
          "internalType": "uint256",
          "name": "",
          "type": "uint256"
        }
      ],
      "stateMutability": "view",
      "type": "function"
    },
    {
      "inputs": [
        {
          "internalType": "address",
          "name": "from",
          "type": "address"
        },
        {
          "internalType": "address",
          "name": "to",
          "type": "address"
        },
        {
          "internalType": "uint256",
          "name": "tokenId",
          "type": "uint256"
        }
      ],
      "name": "transferFrom",
      "outputs": [],
      "stateMutability": "nonpayable",
      "type": "function"
    },
    {
      "inputs": [
        {
          "internalType": "address",
          "name": "newOwner",
          "type": "address"
        }
      ],
      "name": "transferOwnership",
      "outputs": [],
      "stateMutability": "nonpayable",
      "type": "function"
    },
    {
      "inputs": [
        {
          "internalType": "contract IMATAccessManager",
          "name": "_MATAccessManager",
          "type": "address"
        }
      ],
      "name": "setMATAccessManager",
      "outputs": [],
      "stateMutability": "nonpayable",
      "type": "function"
    },
    {
      "inputs": [
        {
          "internalType": "contract CoreFee",
          "name": "_coreFee",
          "type": "address"
        }
      ],
      "name": "setCoreFee",
      "outputs": [],
      "stateMutability": "nonpayable",
      "type": "function"
    },
    {
      "inputs": [
        {
          "internalType": "address",
          "name": "_toAddress",
          "type": "address"
        },
        {
          "internalType": "uint256",
          "name": "_gene",
          "type": "uint256"
        }
      ],
      "name": "born",
      "outputs": [],
      "stateMutability": "nonpayable",
      "type": "function"
    },
    {
      "inputs": [
        {
          "internalType": "address[]",
          "name": "_toAddresses",
          "type": "address[]"
        },
        {
          "internalType": "uint256[]",
          "name": "_genes",
          "type": "uint256[]"
        }
      ],
      "name": "borns",
      "outputs": [],
      "stateMutability": "nonpayable",
      "type": "function"
    },
    {
      "inputs": [
        {
          "internalType": "uint256",
          "name": "_nftId",
          "type": "uint256"
        },
        {
          "internalType": "uint256",
          "name": "_newGene",
          "type": "uint256"
        }
      ],
      "name": "evolve",
      "outputs": [],
      "stateMutability": "nonpayable",
      "type": "function"
    },
    {
      "inputs": [
        {
          "internalType": "address",
          "name": "_toAddress",
          "type": "address"
        },
        {
          "internalType": "uint256",
          "name": "_nftId1",
          "type": "uint256"
        },
        {
          "internalType": "uint256",
          "name": "_nftId2",
          "type": "uint256"
        },
        {
          "internalType": "uint256",
          "name": "_gene",
          "type": "uint256"
        }
      ],
      "name": "breed",
      "outputs": [
        {
          "internalType": "uint256",
          "name": "",
          "type": "uint256"
        }
      ],
      "stateMutability": "nonpayable",
      "type": "function"
    },
    {
      "inputs": [
        {
          "internalType": "uint256",
          "name": "_nftId",
          "type": "uint256"
        }
      ],
      "name": "destroy",
      "outputs": [],
      "stateMutability": "nonpayable",
      "type": "function"
    },
    {
      "inputs": [
        {
          "internalType": "uint256",
          "name": "_id",
          "type": "uint256"
        }
      ],
      "name": "exists",
      "outputs": [
        {
          "internalType": "bool",
          "name": "",
          "type": "bool"
        }
      ],
      "stateMutability": "view",
      "type": "function"
    },
    {
      "inputs": [
        {
          "internalType": "uint256",
          "name": "_nftId",
          "type": "uint256"
        }
      ],
      "name": "get",
      "outputs": [
        {
          "internalType": "address",
          "name": "",
          "type": "address"
        },
        {
          "internalType": "uint256",
          "name": "",
          "type": "uint256"
        },
        {
          "internalType": "uint256",
          "name": "",
          "type": "uint256"
        },
        {
          "internalType": "uint256",
          "name": "",
          "type": "uint256"
        },
        {
          "internalType": "uint256",
          "name": "",
          "type": "uint256"
        }
      ],
      "stateMutability": "view",
      "type": "function"
    }
  ],
  "bytecode": "0x60806040523480156200001157600080fd5b5060405162002cd238038062002cd2833981016040819052620000349162000292565b604080518082018252600f81526e6d796d61737465727761722e636f6d60881b602080830191909152825180840190935260068352654d415437323160d01b90830152906200008a6301ffc9a760e01b62000168565b81516200009f906006906020850190620001ec565b508051620000b5906007906020840190620001ec565b50620000c86380ac58cd60e01b62000168565b620000da635b5e139f60e01b62000168565b620000ec63780e9d6360e01b62000168565b5050600a80546001600160a01b0319163390811790915560405181906000907f8be0079c531659141344cd1fd0a4f28419497f9722a3daafe3b4186f6b6457e0908290a350600c80546001600160a01b039384166001600160a01b031991821617909155600d80549290931691161790556001600b5562000327565b6001600160e01b03198082161415620001c75760405162461bcd60e51b815260206004820152601c60248201527f4552433136353a20696e76616c696420696e7465726661636520696400000000604482015260640160405180910390fd5b6001600160e01b0319166000908152602081905260409020805460ff19166001179055565b828054620001fa90620002d1565b90600052602060002090601f0160209004810192826200021e576000855562000269565b82601f106200023957805160ff191683800117855562000269565b8280016001018555821562000269579182015b82811115620002695782518255916020019190600101906200024c565b50620002779291506200027b565b5090565b5b808211156200027757600081556001016200027c565b60008060408385031215620002a657600080fd5b8251620002b3816200030e565b6020840151909250620002c6816200030e565b809150509250929050565b600181811c90821680620002e657607f821691505b602082108114156200030857634e487b7160e01b600052602260045260246000fd5b50919050565b6001600160a01b03811681146200032457600080fd5b50565b61299b80620003376000396000f3fe608060405234801561001057600080fd5b50600436106101da5760003560e01c806370a082311161010457806395d89b41116100a2578063c87b56dd11610071578063c87b56dd1461042a578063e00dd1611461043d578063e985e9c514610446578063f2fde38b1461048257600080fd5b806395d89b41146103e95780639d118770146103f1578063a22cb46514610404578063b88d4fde1461041757600080fd5b80637d12ec3d116100de5780637d12ec3d1461036d5780638da5cb5b14610380578063903a8e1a146103915780639507d39a146103a457600080fd5b806370a082311461033f578063715018a614610352578063774448201461035a57600080fd5b80632f745c591161017c57806350ccda0c1161014b57806350ccda0c146102fe57806356f427f9146103115780636352211e146103245780636c0360eb1461033757600080fd5b80632f745c59146102b257806342842e0e146102c55780634f558e79146102d85780634f6ccce7146102eb57600080fd5b8063095ea7b3116101b8578063095ea7b31461026157806318160ddd14610276578063194e2a051461028c57806323b872dd1461029f57600080fd5b806301ffc9a7146101df57806306fdde0314610221578063081812fc14610236575b600080fd5b61020c6101ed3660046125b1565b6001600160e01b03191660009081526020819052604090205460ff1690565b60405190151581526020015b60405180910390f35b610229610495565b60405161021891906126da565b6102496102443660046125eb565b610527565b6040516001600160a01b039091168152602001610218565b61027461026f3660046124c1565b6105b4565b005b61027e6106ca565b604051908152602001610218565b61027461029a36600461231c565b6106db565b6102746102ad366004612372565b610727565b61027e6102c03660046124c1565b610758565b6102746102d3366004612372565b610783565b61020c6102e63660046125eb565b61079e565b61027e6102f93660046125eb565b6107a9565b61027461030c366004612604565b6107bf565b61027461031f3660046124c1565b6109b9565b6102496103323660046125eb565b610bca565b610229610bf2565b61027e61034d36600461231c565b610c01565b610274610c8d565b61027e6103683660046124ed565b610d01565b61027461037b36600461231c565b610f56565b600a546001600160a01b0316610249565b61027461039f366004612528565b610fa2565b6103b76103b23660046125eb565b61104d565b604080516001600160a01b0390961686526020860194909452928401919091526060830152608082015260a001610218565b610229611091565b6102746103ff3660046125eb565b6110a0565b610274610412366004612493565b6111ef565b6102746104253660046123b3565b6112b4565b6102296104383660046125eb565b6112ec565b61027e600b5481565b61020c610454366004612339565b6001600160a01b03918216600090815260056020908152604080832093909416825291909152205460ff1690565b61027461049036600461231c565b61145e565b6060600680546104a4906127f9565b80601f01602080910402602001604051908101604052809291908181526020018280546104d0906127f9565b801561051d5780601f106104f25761010080835404028352916020019161051d565b820191906000526020600020905b81548152906001019060200180831161050057829003601f168201915b5050505050905090565b600061053282611549565b6105985760405162461bcd60e51b815260206004820152602c60248201527f4552433732313a20617070726f76656420717565727920666f72206e6f6e657860448201526b34b9ba32b73a103a37b5b2b760a11b60648201526084015b60405180910390fd5b506000908152600460205260409020546001600160a01b031690565b60006105bf82610bca565b9050806001600160a01b0316836001600160a01b0316141561062d5760405162461bcd60e51b815260206004820152602160248201527f4552433732313a20617070726f76616c20746f2063757272656e74206f776e656044820152603960f91b606482015260840161058f565b336001600160a01b038216148061064957506106498133610454565b6106bb5760405162461bcd60e51b815260206004820152603860248201527f4552433732313a20617070726f76652063616c6c6572206973206e6f74206f7760448201527f6e6572206e6f7220617070726f76656420666f7220616c6c0000000000000000606482015260840161058f565b6106c58383611556565b505050565b60006106d660026115c4565b905090565b600a546001600160a01b031633146107055760405162461bcd60e51b815260040161058f906126ed565b600c80546001600160a01b0319166001600160a01b0392909216919091179055565b61073133826115ce565b61074d5760405162461bcd60e51b815260040161058f90612722565b6106c58383836116b4565b6001600160a01b038216600090815260016020526040812061077a9083611835565b90505b92915050565b6106c5838383604051806020016040528060008152506112b4565b600061077d82611549565b6000806107b7600284611841565b509392505050565b600c546001600160a01b0316637d213d48336040516001600160e01b031960e084901b1681526001600160a01b039091166004820152602481018490526044810185905260640160206040518083038186803b15801561081e57600080fd5b505afa158015610832573d6000803e3d6000fd5b505050506040513d601f19601f820116820180604052508101906108569190612594565b6108a25760405162461bcd60e51b815260206004820152601a60248201527f4e6f7420686176652065766f6c7665207065726d697369736f6e000000000000604482015260640161058f565b60006108ad83610bca565b6001600160a01b031614156108f55760405162461bcd60e51b815260206004820152600e60248201526d139195081a59081a5b9d985b1a5960921b604482015260640161058f565b6000828152600e6020526040902060020154818114156109495760405162461bcd60e51b815260206004820152600f60248201526e47656e65206e6f74206368616e676560881b604482015260640161058f565b6000838152600e6020526040902060020182905582336001600160a01b03167f6711e1affb6e957f7fcb02e246886c07fa2d05934efd8b0b705f7aa0d5a2199e8385426040516109ac939291909283526020830191909152604082015260600190565b60405180910390a3505050565b600c546001600160a01b0316631c59d730336040516001600160e01b031960e084901b1681526001600160a01b0390911660048201526024810184905260440160206040518083038186803b158015610a1157600080fd5b505afa158015610a25573d6000803e3d6000fd5b505050506040513d601f19601f82011682018060405250810190610a499190612594565b610a955760405162461bcd60e51b815260206004820152601860248201527f4e6f74206861766520626f726e207065726d697369736f6e0000000000000000604482015260640161058f565b600b54610aa2838261185f565b60408051608081018252600080825260208083018281528385018781524260608601908152878552600e90935292859020935184555160018401559051600283015551600390910155600d549051637b18296560e01b81526001600160a01b038581166004830152602482018490526044820185905290911690637b18296590606401600060405180830381600087803b158015610b3f57600080fd5b505af1158015610b53573d6000803e3d6000fd5b5050505080836001600160a01b0316610b693390565b6001600160a01b03167f6545c67a7fedbecf0121478460b610aaf23a8a2465e62f30c93a13ab05ecaad48542604051610bac929190918252602082015260400190565b60405180910390a4600b54610bc2906001612773565b600b55505050565b600061077d8260405180606001604052806029815260200161293d6029913960029190611977565b6060600980546104a4906127f9565b60006001600160a01b038216610c6c5760405162461bcd60e51b815260206004820152602a60248201527f4552433732313a2062616c616e636520717565727920666f7220746865207a65604482015269726f206164647265737360b01b606482015260840161058f565b6001600160a01b038216600090815260016020526040902061077d906115c4565b600a546001600160a01b03163314610cb75760405162461bcd60e51b815260040161058f906126ed565b600a546040516000916001600160a01b0316907f8be0079c531659141344cd1fd0a4f28419497f9722a3daafe3b4186f6b6457e0908390a3600a80546001600160a01b0319169055565b600c546000906001600160a01b03166320470e72336040516001600160e01b031960e084901b1681526001600160a01b039091166004820152602481018790526044810186905260640160206040518083038186803b158015610d6357600080fd5b505afa158015610d77573d6000803e3d6000fd5b505050506040513d601f19601f82011682018060405250810190610d9b9190612594565b610de75760405162461bcd60e51b815260206004820152601960248201527f4e6f742068617665206272656564207065726d697369736f6e00000000000000604482015260640161058f565b6000610df285610bca565b6001600160a01b03161415610e395760405162461bcd60e51b815260206004820152600d60248201526c139195080c481a5b9d985b1a59609a1b604482015260640161058f565b6000610e4484610bca565b6001600160a01b03161415610e8b5760405162461bcd60e51b815260206004820152600d60248201526c139195080c881a5b9d985b1a59609a1b604482015260640161058f565b600b54610e98868261185f565b60408051608081018252868152602080820187815282840187815242606085019081526000878152600e909452949092209251835551600180840191909155905160028301559151600390910155600b54610ef291612773565b600b556040805186815260208101869052808201859052426060820152905182916001600160a01b0389169133917f463da1bec7270ee8cb4bdf6f53ebd2ffe93a9e692a222370b15c3245f7aa4c7c919081900360800190a490505b949350505050565b600a546001600160a01b03163314610f805760405162461bcd60e51b815260040161058f906126ed565b600d80546001600160a01b0319166001600160a01b0392909216919091179055565b828114610fe15760405162461bcd60e51b815260206004820152600d60248201526c125b9d985b1a59081a5b9c1d5d609a1b604482015260640161058f565b60005b8381101561104657611034858583818110611001576110016128a5565b9050602002016020810190611016919061231c565b848484818110611028576110286128a5565b905060200201356109b9565b8061103e81612834565b915050610fe4565b5050505050565b600080600080600061105e86610bca565b6000968752600e602052604090962080546001820154600283015460039093015498999198909750919550909350915050565b6060600780546104a4906127f9565b600c546001600160a01b0316634f7b6a9f336040516001600160e01b031960e084901b1681526001600160a01b0390911660048201526024810184905260440160206040518083038186803b1580156110f857600080fd5b505afa15801561110c573d6000803e3d6000fd5b505050506040513d601f19601f820116820180604052508101906111309190612594565b61117c5760405162461bcd60e51b815260206004820152601b60248201527f4e6f7420686176652064657374726f79207065726d697369736f6e0000000000604482015260640161058f565b6111858161198e565b6000818152600e6020526040812081815560018101829055600281018290556003015580336001600160a01b03167f16b35c733876ade87e5062332519f2666918ff4b5a284a7f4625c231cda6ff28426040516111e491815260200190565b60405180910390a350565b6001600160a01b0382163314156112485760405162461bcd60e51b815260206004820152601960248201527f4552433732313a20617070726f766520746f2063616c6c657200000000000000604482015260640161058f565b3360008181526005602090815260408083206001600160a01b03871680855290835292819020805460ff191686151590811790915590519081529192917f17307eab39ab6107e8899845ad3d59bd9653f200f220920489ca2b5937696c31910160405180910390a35050565b6112be33836115ce565b6112da5760405162461bcd60e51b815260040161058f90612722565b6112e684848484611a48565b50505050565b60606112f782611549565b61135b5760405162461bcd60e51b815260206004820152602f60248201527f4552433732314d657461646174613a2055524920717565727920666f72206e6f60448201526e3732bc34b9ba32b73a103a37b5b2b760891b606482015260840161058f565b60008281526008602052604081208054611374906127f9565b80601f01602080910402602001604051908101604052809291908181526020018280546113a0906127f9565b80156113ed5780601f106113c2576101008083540402835291602001916113ed565b820191906000526020600020905b8154815290600101906020018083116113d057829003601f168201915b5050505050905060006113fe610bf2565b9050805160001415611411575092915050565b81511561144357808260405160200161142b92919061266e565b60405160208183030381529060405292505050919050565b8061144d85611ac6565b60405160200161142b92919061266e565b600a546001600160a01b031633146114885760405162461bcd60e51b815260040161058f906126ed565b6001600160a01b0381166114ed5760405162461bcd60e51b815260206004820152602660248201527f4f776e61626c653a206e6577206f776e657220697320746865207a65726f206160448201526564647265737360d01b606482015260840161058f565b600a546040516001600160a01b038084169216907f8be0079c531659141344cd1fd0a4f28419497f9722a3daafe3b4186f6b6457e090600090a3600a80546001600160a01b0319166001600160a01b0392909216919091179055565b600061077d600283611bdd565b600081815260046020526040902080546001600160a01b0319166001600160a01b038416908117909155819061158b82610bca565b6001600160a01b03167f8c5be1e5ebec7d5bd14f71427d1e84f3dd0314c0f7b2291e5b200ac8c7c3b92560405160405180910390a45050565b600061077d825490565b60006115d982611549565b61163a5760405162461bcd60e51b815260206004820152602c60248201527f4552433732313a206f70657261746f7220717565727920666f72206e6f6e657860448201526b34b9ba32b73a103a37b5b2b760a11b606482015260840161058f565b600061164583610bca565b9050806001600160a01b0316846001600160a01b031614806116805750836001600160a01b031661167584610527565b6001600160a01b0316145b80610f4e57506001600160a01b0380821660009081526005602090815260408083209388168352929052205460ff16610f4e565b826001600160a01b03166116c782610bca565b6001600160a01b03161461172f5760405162461bcd60e51b815260206004820152602960248201527f4552433732313a207472616e73666572206f6620746f6b656e2074686174206960448201526839903737ba1037bbb760b91b606482015260840161058f565b6001600160a01b0382166117915760405162461bcd60e51b8152602060048201526024808201527f4552433732313a207472616e7366657220746f20746865207a65726f206164646044820152637265737360e01b606482015260840161058f565b61179c600082611556565b6001600160a01b03831660009081526001602052604090206117be9082611bf5565b506001600160a01b03821660009081526001602052604090206117e19082611c01565b506117ee60028284611c0d565b5080826001600160a01b0316846001600160a01b03167fddf252ad1be2c89b69c2b068fc378daa952ba7f163c4a11628f55a4df523b3ef60405160405180910390a4505050565b600061077a8383611c23565b60008080806118508686611ca9565b909450925050505b9250929050565b6001600160a01b0382166118b55760405162461bcd60e51b815260206004820181905260248201527f4552433732313a206d696e7420746f20746865207a65726f2061646472657373604482015260640161058f565b6118be81611549565b1561190b5760405162461bcd60e51b815260206004820152601c60248201527f4552433732313a20746f6b656e20616c7265616479206d696e74656400000000604482015260640161058f565b6001600160a01b038216600090815260016020526040902061192d9082611c01565b5061193a60028284611c0d565b5060405181906001600160a01b038416906000907fddf252ad1be2c89b69c2b068fc378daa952ba7f163c4a11628f55a4df523b3ef908290a45050565b6000611984848484611d46565b90505b9392505050565b600061199982610bca565b90506119a6600083611556565b600082815260086020526040902080546119bf906127f9565b1590506119dd5760008281526008602052604081206119dd91612281565b6001600160a01b03811660009081526001602052604090206119ff9083611bf5565b50611a0b600283611daf565b5060405182906000906001600160a01b038416907fddf252ad1be2c89b69c2b068fc378daa952ba7f163c4a11628f55a4df523b3ef908390a45050565b611a538484846116b4565b611a5f84848484611dbb565b6112e65760405162461bcd60e51b815260206004820152603260248201527f4552433732313a207472616e7366657220746f206e6f6e20455243373231526560448201527131b2b4bb32b91034b6b83632b6b2b73a32b960711b606482015260840161058f565b606081611aea5750506040805180820190915260018152600360fc1b602082015290565b8160005b8115611b145780611afe81612834565b9150611b0d9050600a8361278b565b9150611aee565b60008167ffffffffffffffff811115611b2f57611b2f6128bb565b6040519080825280601f01601f191660200182016040528015611b59576020820181803683370190505b5090506000611b6960018461279f565b90508593505b8315611bd457611b80600a8561284f565b611b8b906030612773565b60f81b8282611b99816127e2565b935081518110611bab57611bab6128a5565b60200101906001600160f81b031916908160001a905350611bcd600a8561278b565b9350611b6f565b50949350505050565b6000818152600183016020526040812054151561077a565b600061077a8383611e8c565b600061077a8383611f7f565b600061198484846001600160a01b038516611fce565b81546000908210611c815760405162461bcd60e51b815260206004820152602260248201527f456e756d657261626c655365743a20696e646578206f7574206f6620626f756e604482015261647360f01b606482015260840161058f565b826000018281548110611c9657611c966128a5565b9060005260206000200154905092915050565b815460009081908310611d095760405162461bcd60e51b815260206004820152602260248201527f456e756d657261626c654d61703a20696e646578206f7574206f6620626f756e604482015261647360f01b606482015260840161058f565b6000846000018481548110611d2057611d206128a5565b906000526020600020906002020190508060000154816001015492509250509250929050565b60008281526001840160205260408120548281611d765760405162461bcd60e51b815260040161058f91906126da565b5084611d8360018361279f565b81548110611d9357611d936128a5565b9060005260206000209060020201600101549150509392505050565b600061077a838361206f565b60006001600160a01b0384163b611dd457506001610f4e565b6000611e55630a85bd0160e11b33888787604051602401611df8949392919061269d565b604051602081830303815290604052906001600160e01b0319166020820180516001600160e01b03838183161783525050505060405180606001604052806032815260200161290b603291396001600160a01b0388169190612176565b9050600081806020019051810190611e6d91906125ce565b6001600160e01b031916630a85bd0160e11b1492505050949350505050565b60008181526001830160205260408120548015611f75576000611eb060018361279f565b8554909150600090611ec49060019061279f565b90506000866000018281548110611edd57611edd6128a5565b9060005260206000200154905080876000018481548110611f0057611f006128a5565b600091825260209091200155611f17836001612773565b60008281526001890160205260409020558654879080611f3957611f3961288f565b6001900381819060005260206000200160009055905586600101600087815260200190815260200160002060009055600194505050505061077d565b600091505061077d565b6000818152600183016020526040812054611fc65750815460018181018455600084815260208082209093018490558454848252828601909352604090209190915561077d565b50600061077d565b600082815260018401602052604081205480612033575050604080518082018252838152602080820184815286546001818101895560008981528481209551600290930290950191825591519082015586548684528188019092529290912055611987565b828561204060018461279f565b81548110612050576120506128a5565b9060005260206000209060020201600101819055506000915050611987565b60008181526001830160205260408120548015611f7557600061209360018361279f565b85549091506000906120a79060019061279f565b905060008660000182815481106120c0576120c06128a5565b90600052602060002090600202019050808760000184815481106120e6576120e66128a5565b60009182526020909120825460029092020190815560019182015490820155612110908490612773565b8154600090815260018901602052604090205586548790806121345761213461288f565b600082815260208082206002600019909401938402018281556001908101839055929093558881528982019092526040822091909155945061077d9350505050565b6060611984848460008585843b6121cf5760405162461bcd60e51b815260206004820152601d60248201527f416464726573733a2063616c6c20746f206e6f6e2d636f6e7472616374000000604482015260640161058f565b600080866001600160a01b031685876040516121eb9190612652565b60006040518083038185875af1925050503d8060008114612228576040519150601f19603f3d011682016040523d82523d6000602084013e61222d565b606091505b509150915061223d828286612248565b979650505050505050565b60608315612257575081611987565b8251156122675782518084602001fd5b8160405162461bcd60e51b815260040161058f91906126da565b50805461228d906127f9565b6000825580601f1061229d575050565b601f0160209004906000526020600020908101906122bb91906122be565b50565b5b808211156122d357600081556001016122bf565b5090565b60008083601f8401126122e957600080fd5b50813567ffffffffffffffff81111561230157600080fd5b6020830191508360208260051b850101111561185857600080fd5b60006020828403121561232e57600080fd5b8135611987816128d1565b6000806040838503121561234c57600080fd5b8235612357816128d1565b91506020830135612367816128d1565b809150509250929050565b60008060006060848603121561238757600080fd5b8335612392816128d1565b925060208401356123a2816128d1565b929592945050506040919091013590565b600080600080608085870312156123c957600080fd5b84356123d4816128d1565b935060208501356123e4816128d1565b925060408501359150606085013567ffffffffffffffff8082111561240857600080fd5b818701915087601f83011261241c57600080fd5b81358181111561242e5761242e6128bb565b604051601f8201601f19908116603f01168101908382118183101715612456576124566128bb565b816040528281528a602084870101111561246f57600080fd5b82602086016020830137600060208483010152809550505050505092959194509250565b600080604083850312156124a657600080fd5b82356124b1816128d1565b91506020830135612367816128e6565b600080604083850312156124d457600080fd5b82356124df816128d1565b946020939093013593505050565b6000806000806080858703121561250357600080fd5b843561250e816128d1565b966020860135965060408601359560600135945092505050565b6000806000806040858703121561253e57600080fd5b843567ffffffffffffffff8082111561255657600080fd5b612562888389016122d7565b9096509450602087013591508082111561257b57600080fd5b50612588878288016122d7565b95989497509550505050565b6000602082840312156125a657600080fd5b8151611987816128e6565b6000602082840312156125c357600080fd5b8135611987816128f4565b6000602082840312156125e057600080fd5b8151611987816128f4565b6000602082840312156125fd57600080fd5b5035919050565b6000806040838503121561261757600080fd5b50508035926020909101359150565b6000815180845261263e8160208601602086016127b6565b601f01601f19169290920160200192915050565b600082516126648184602087016127b6565b9190910192915050565b600083516126808184602088016127b6565b8351908301906126948183602088016127b6565b01949350505050565b6001600160a01b03858116825284166020820152604081018390526080606082018190526000906126d090830184612626565b9695505050505050565b60208152600061077a6020830184612626565b6020808252818101527f4f776e61626c653a2063616c6c6572206973206e6f7420746865206f776e6572604082015260600190565b60208082526031908201527f4552433732313a207472616e736665722063616c6c6572206973206e6f74206f6040820152701ddb995c881b9bdc88185c1c1c9bdd9959607a1b606082015260800190565b6000821982111561278657612786612863565b500190565b60008261279a5761279a612879565b500490565b6000828210156127b1576127b1612863565b500390565b60005b838110156127d15781810151838201526020016127b9565b838111156112e65750506000910152565b6000816127f1576127f1612863565b506000190190565b600181811c9082168061280d57607f821691505b6020821081141561282e57634e487b7160e01b600052602260045260246000fd5b50919050565b600060001982141561284857612848612863565b5060010190565b60008261285e5761285e612879565b500690565b634e487b7160e01b600052601160045260246000fd5b634e487b7160e01b600052601260045260246000fd5b634e487b7160e01b600052603160045260246000fd5b634e487b7160e01b600052603260045260246000fd5b634e487b7160e01b600052604160045260246000fd5b6001600160a01b03811681146122bb57600080fd5b80151581146122bb57600080fd5b6001600160e01b0319811681146122bb57600080fdfe4552433732313a207472616e7366657220746f206e6f6e20455243373231526563656976657220696d706c656d656e7465724552433732313a206f776e657220717565727920666f72206e6f6e6578697374656e7420746f6b656ea2646970667358221220530d82901ff4c4735d1416fd163fdba565acab7c588271aaf5fe573baaffb05564736f6c63430008060033",
  "immutableReferences": {},
  "source": "// SPDX-License-Identifier: MIT\npragma solidity 0.8.6;\n\nimport \"./ERC/ERC721/ERC721.sol\";\nimport \"./access/Ownable.sol\";\nimport \"./access/IMATAccessManager.sol\";\nimport \"./CoreFee.sol\";\n\ncontract MyMasterWarCore is ERC721, Ownable {\n    uint256 public currentId;\n    IMATAccessManager MATAccessManager;\n    CoreFee coreFee;\n    struct MyMasterWar {\n        uint256 parent1;\n        uint256 parent2;\n        uint256 gene;\n        uint256 bornAt;\n    }\n    mapping(uint256 => MyMasterWar) myMasterWars;\n    // MyMasterWar[] myMasterWars;\n\n    event Born(\n        address indexed caller,\n        address indexed to,\n        uint256 indexed nftId,\n        uint256 gene,\n        uint256 time\n    );\n    event Evolve(\n        address indexed caller,\n        uint256 indexed nftID,\n        uint256 oldGene,\n        uint256 newGene,\n        uint256 time\n    );\n    event Breed(\n        address indexed caller,\n        address indexed to,\n        uint256 indexed newNftId,\n        uint256 parent1,\n        uint256 parent2,\n        uint256 newGene,\n        uint256 time\n    );\n    event Destroy(address indexed caller, uint256 indexed nftId, uint256 time);\n\n    constructor(IMATAccessManager _MATAccessManager, CoreFee _coreFee)\n        ERC721(\"mymasterwar.com\", \"MAT721\")\n    {\n        MATAccessManager = _MATAccessManager;\n        coreFee = _coreFee;\n        currentId = 1;\n    }\n\n    function setMATAccessManager(IMATAccessManager _MATAccessManager)\n        public\n        onlyOwner\n    {\n        MATAccessManager = _MATAccessManager;\n    }\n\n    function setCoreFee(CoreFee _coreFee) public onlyOwner {\n        coreFee = _coreFee;\n    }\n\n    function born(address _toAddress, uint256 _gene) public {\n        require(\n            MATAccessManager.isBornAllowed(_msgSender(), _gene),\n            \"Not have born permisison\"\n        );\n        uint256 _nftId = currentId;\n\n        _mint(_toAddress, _nftId);\n        myMasterWars[_nftId] = MyMasterWar(0, 0, _gene, block.timestamp);\n\n        //charge fee\n        coreFee.chargeBornFee(_toAddress, _nftId, _gene);\n\n        emit Born(_msgSender(), _toAddress, _nftId, _gene, block.timestamp);\n\n        currentId = currentId + 1;\n        // return _nftId;\n    }\n\n    function borns(address[] calldata _toAddresses, uint256[] calldata _genes)\n        public\n    {\n        require(_toAddresses.length == _genes.length, \"Invalid input\");\n\n        for (uint256 i = 0; i < _toAddresses.length; i++) {\n            born(_toAddresses[i], _genes[i]);\n            // ids.push(id);\n        }\n        // return ids;\n    }\n\n    function evolve(uint256 _nftId, uint256 _newGene) external {\n        require(\n            MATAccessManager.isEvolveAllowed(_msgSender(), _newGene, _nftId),\n            \"Not have evolve permisison\"\n        );\n        require(ownerOf(_nftId) != address(0), \"NFT id invalid\");\n\n        uint256 oldGene = myMasterWars[_nftId].gene;\n        require(oldGene != _newGene, \"Gene not change\");\n\n        myMasterWars[_nftId].gene = _newGene;\n\n        //charge fee\n        // coreFee.chargeEvolveFee(_msgSender(), _nftId, _newGene);\n        emit Evolve(_msgSender(), _nftId, oldGene, _newGene, block.timestamp);\n    }\n\n    function breed(\n        address _toAddress,\n        uint256 _nftId1,\n        uint256 _nftId2,\n        uint256 _gene\n    ) external returns (uint256) {\n        require(\n            MATAccessManager.isBreedAllowed(_msgSender(), _nftId1, _nftId2),\n            \"Not have breed permisison\"\n        );\n        require(ownerOf(_nftId1) != address(0), \"NFT 1 invalid\");\n        require(ownerOf(_nftId2) != address(0), \"NFT 2 invalid\");\n\n        // uint256 _nftId = totalSupply() + 1;\n        uint256 _nftId = currentId;\n\n        _mint(_toAddress, _nftId);\n        myMasterWars[_nftId] = MyMasterWar(\n            _nftId1,\n            _nftId2,\n            _gene,\n            block.timestamp\n        );\n\n        currentId = currentId + 1;\n\n        //charge fee\n        // coreFee.chargeBreedFee(_toAddress, _nftId1, _nftId2, _gene);\n        emit Breed(\n            _msgSender(),\n            _toAddress,\n            _nftId,\n            _nftId1,\n            _nftId2,\n            _gene,\n            block.timestamp\n        );\n        return _nftId;\n    }\n\n    function destroy(uint256 _nftId) external {\n        require(\n            MATAccessManager.isDestroyAllowed(_msgSender(), _nftId),\n            \"Not have destroy permisison\"\n        );\n        _burn(_nftId);\n        delete myMasterWars[_nftId];\n\n        //charge fee\n        // coreFee.chargeDestroyFee(_msgSender(), _nftId);\n        emit Destroy(_msgSender(), _nftId, block.timestamp);\n    }\n\n    function exists(uint256 _id) public view returns (bool) {\n        return _exists(_id);\n    }\n\n    function get(uint256 _nftId)\n        public\n        view\n        returns (\n            address,\n            uint256,\n            uint256,\n            uint256,\n            uint256\n        )\n    {\n        return (\n            ownerOf(_nftId),\n            myMasterWars[_nftId].parent1,\n            myMasterWars[_nftId].parent2,\n            myMasterWars[_nftId].gene,\n            myMasterWars[_nftId].bornAt\n        );\n    }\n}\n",
  "sourcePath": "/Users/tabatrung/Documents/Work/NFTGameTamQuoc/projects/public/MAT-nft/contracts/MyMasterWarCore.sol",
  "compiler": {
    "name": "solc",
    "version": "0.8.6+commit.11564f7e.Emscripten.clang"
  },
  "schemaVersion": "3.2.0",
  "updatedAt": "2021-09-26T16:08:34.511Z",
  "devdoc": {
    "kind": "dev",
    "methods": {
      "approve(address,uint256)": {
        "details": "See {IERC721-approve}."
      },
      "balanceOf(address)": {
        "details": "See {IERC721-balanceOf}."
      },
      "baseURI()": {
        "details": "Returns the base URI set via {_setBaseURI}. This will be automatically added as a prefix in {tokenURI} to each token's URI, or to the token ID if no specific URI is set for that token ID."
      },
      "getApproved(uint256)": {
        "details": "See {IERC721-getApproved}."
      },
      "isApprovedForAll(address,address)": {
        "details": "See {IERC721-isApprovedForAll}."
      },
      "name()": {
        "details": "See {IERC721Metadata-name}."
      },
      "owner()": {
        "details": "Returns the address of the current owner."
      },
      "ownerOf(uint256)": {
        "details": "See {IERC721-ownerOf}."
      },
      "renounceOwnership()": {
        "details": "Leaves the contract without owner. It will not be possible to call `onlyOwner` functions anymore. Can only be called by the current owner. NOTE: Renouncing ownership will leave the contract without an owner, thereby removing any functionality that is only available to the owner."
      },
      "safeTransferFrom(address,address,uint256)": {
        "details": "See {IERC721-safeTransferFrom}."
      },
      "safeTransferFrom(address,address,uint256,bytes)": {
        "details": "See {IERC721-safeTransferFrom}."
      },
      "setApprovalForAll(address,bool)": {
        "details": "See {IERC721-setApprovalForAll}."
      },
      "supportsInterface(bytes4)": {
        "details": "See {IERC165-supportsInterface}. Time complexity O(1), guaranteed to always use less than 30 000 gas."
      },
      "symbol()": {
        "details": "See {IERC721Metadata-symbol}."
      },
      "tokenByIndex(uint256)": {
        "details": "See {IERC721Enumerable-tokenByIndex}."
      },
      "tokenOfOwnerByIndex(address,uint256)": {
        "details": "See {IERC721Enumerable-tokenOfOwnerByIndex}."
      },
      "tokenURI(uint256)": {
        "details": "See {IERC721Metadata-tokenURI}."
      },
      "totalSupply()": {
        "details": "See {IERC721Enumerable-totalSupply}."
      },
      "transferFrom(address,address,uint256)": {
        "details": "See {IERC721-transferFrom}."
      },
      "transferOwnership(address)": {
        "details": "Transfers ownership of the contract to a new account (`newOwner`). Can only be called by the current owner."
      }
    },
    "version": 1
  },
  "userdoc": {
    "kind": "user",
    "methods": {},
    "version": 1
  }
}